:020000040000FA
:1000000002072A020803FFFFFFFFFF02080BFFFFA2
:10001000FFFFFF020813FFFFFFFFFF02081BFFFFA8
:10002000FFFFFF020823FFFFFFFFFF02082BFFFF78
:10003000FFFFFF020833FFFFFFFFFF02083BFFFF48
:10004000FFFFFF020843FFFFFFFFFF02084BFFFF18
:10005000FFFFFF020853FFFFFFFFFF02085BFFFFE8
:10006000FFFFFF020863FFFFFFFFFF02086BFFFFB8
:10007000FFFFFF020873FFFFFFFFFF02087BFFFF88
:10008000FFFFFF020883FFFFFFFFFF02088B78FFDF
:10009000FFFF040000000100000000000000060057
:1000A00000000008000074F512056A8908740F59F1
:1000B000F50A750B00740B780A1206F6EA2400F8AC
:1000C000EB3480F9EA2400E9350BF985C709E50826
:1000D000C4540FFAE5C754F84AF5C7740B12076108
:1000E000E0FAA3E0FB801C88828983E08C828D8308
:1000F000F088828983A3A882A9838C828D83A3AC94
:1001000082AD83EAFEEBFFEE24FF1AEF34FFFBEE35
:100110004F70D48509C77F040205D074F712056AB1
:10012000ED900109F0ECA3F0A37462F0A37473F0F6
:10013000A3E0541FF07409120761E0F508A3E0F58D
:1001400009E508333354FC90010EF0740678081268
:100150000739E50890010DF090010F7412F0A374B7
:1001600042F075D1FE75D601EA906271F0EBA3F012
:10017000906270E0D2E1F0E0A2E740FB7F0202056E
:10018000D0C082C083E9C333906272F0906270E0A5
:10019000D2E0F0D083D082227808EB54806004D281
:1001A000F08002C2F0EA25E0FAEB33FBE9A2E75067
:1001B0000474014AFAA2F0500874216AFA74106BB0
:1001C000FBE9C333F918E870D12274F112056A8A89
:1001D000088B098C0A8D0B740F120761E0F50CA3D4
:1001E000E0F50D7411120761E0F50EA3E0F50FE9DB
:1001F0006014780E120709780C1207091202437472
:100200000412066B802F90012578081206E3780E01
:10021000120709AC0CAD0D85080C85090DAA0CE57B
:100220000D5407FB740B78081206A1A9081200A64A
:10023000740212066B7F080205D0C2F989F9A2F98F
:1002400050FC2274F112056A8A0C8B0D8C0E8D0FF6
:10025000C293790512023AE5F9A2E040F5D2930083
:1002600000C293790B12023A850C08850D09850EA0
:100270000A850F0B741078081206A1A90812023A19
:10028000850D09A90912023A850C08A90812023A3B
:10029000790012023A740F120761E0FEA3E0FF74C6
:1002A00011120761E0F508A3E0F509801179001249
:1002B000023AE5F98E828F83F0A3AE82AF83A8085D
:1002C000A909E824FFF508E934FFF509E84970DDDC
:1002D000D29302023574B01206BA53BEFBE59DA25A
:1002E000E650FA0078F8790100E824FF18E934FFB5
:1002F000F9E84970F375C600E59E70FC43BE0490B2
:1003000062707408F0C29043FE01C29143FE02C2C3
:100310009443FE10C290438F0175F80075FC0B7575
:10032000FAD843FC2043F10243F4E053F4F1439044
:100330000EC29143FE0E53F5DFD2FED2917401F549
:10034000D57409F5D48029900101E0F8A3E0F9A360
:10035000E8F0A3E9F07508017509007808120709AB
:100360007C017D017A227B0212011B740212066B52
:1003700075080875090078081207097C017D017A63
:10038000887B0079011200A6740212066B900101AD
:10039000E0F8A3E0F9A3E0687003A3E06970090244
:1003A0000800745012066B22E84970030204437E71
:1003B000007F008E0C8E0D8E0E8E0F806D900115BD
:1003C000C082850C08850D09850E0A850F0B9001EA
:1003D0001178081206E3758301D082780812064C62
:1003E0005040750801750900780812070974021257
:1003F000071A8808890978081207097900AA0CAB3E
:100400000DAC0EAD0F12056412066B8518828519AE
:1004100083E0F9EEFAEFFB1201988A088B09AE0827
:10042000AF09900119780C1206E3900105780C12BF
:10043000064C5089900101E06E7003A3E06F7003D9
:10044000020347750800750902750A45750B0078A7
:100450000A120709740D12071A880A890B780A1202
:100460000709790190011D12075512056412066BE8
:10047000750A06750B00780A120709740712071A25
:10048000880A890B780A1207097901741512076125
:10049000E0F50AA3E0F50BAA0AFBE4FCFD120564F3
:1004A00012066B751400751500751600751700801F
:1004B0002B8E0A750B00780A1207097403120722A3
:1004C000AA08AB0912011B740212066B0508E508A5
:1004D0007002050990011578141206E374071207DB
:1004E00061781412064C5003020370750A04750BF0
:1004F00000780A120709740312071A880A890B7810
:100500000A1207097E0185140C85150D85160E85C6
:10051000170F7415120761E0F510A3E0F511E4F56B
:1005200012F513780C79101206D0900121780C1274
:1005300006E3AA0CAB0DAC0EAD0FEEF9120564127A
:10054000066BA808E5095401F9E84960030204B103
:10055000880A85090B7409780A120739A90A120159
:10056000810204B11201CA7404222518C582C0E0B8
:10057000E51934FFC583C0E0E518C3958224F9105E
:10058000AF088583198582188008858319858218AC
:10059000D2AFCEF0A3E520F0A37808E608F0A3DE02
:1005A000FAEFF0A3E58124FBF8E608F0A3E608F0F3
:1005B000A30808E608F0A3E608F0A315811581D08A
:1005C000E0FED0E0F815811581E8C0E0EEC0E02241
:1005D000851983851882E0A3FEE0A3F5207808E062
:1005E000A3F608DFFAE0A3FFE0A3C0E0E0A3C0E0C9
:1005F000E0A3C0E0E0A3C0E010AF088582188583C7
:10060000198008858218858319D2AFD083D08222C1
:10061000E4900101781179018002F0A3D8FCD9FAA5
:100620007A117B0190008E781979018015E493A3EB
:10063000AD82AE838A828B83F0A3AA82AB838D8244
:100640008E83D8E9D9E71202D512076BC008C3E040
:1006500096F50808A3E096420808A3E09642080829
:10066000A3E09645087001D3D0082200C0D0251819
:1006700010AF08F518500C05198008F51850020540
:1006800019D2AFD0D0222518F58210AF08F5184046
:100690000C15198008F51840021519D2AF85198379
:1006A000226016080808C6C313C618C613C618C6A3
:1006B00013C618C613C6D5E0EA22251810AF08F5F0
:1006C00018400C15198008F51840021519D2AF22F0
:1006D000E627F60809E637F60809E637F60809E6D8
:1006E00037F622E026F608A3E036F608A3E036F651
:1006F00008A3E036F622700422600D18C6C333C684
:1007000008C633C6D5E0F4182274028000C0E0F4B5
:1007100004120686D0E0120748222518F8E435199D
:10072000F9222518FCE43519FD2275D00075813FAA
:10073000751801751901020610600C08C6C313C6AE
:1007400018C613C6D5E0F422CAC0E0E6F0A308DA62
:10075000FAD0E0FA22E0FAA3E0FBA3E0FCA3E0FD7C
:10076000222518F582E43519F5832200000080FB6C
:10077000FFFFFFFFFFFFFFFFFFFFFFFFFFFFFFFF89
:10078000FFFFFFFFFFFFFFFFFFFFFFFFFFFFFFFF79
:10079000FFFFFFFFFFFFFFFFFFFFFFFFFFFFFFFF69
:1007A000FFFFFFFFFFFFFFFFFFFFFFFFFFFFFFFF59
:1007B000FFFFFFFFFFFFFFFFFFFFFFFFFFFFFFFF49
:1007C000FFFFFFFFFFFFFFFFFFFFFFFFFFFFFFFF39
:1007D000FFFFFFFFFFFFFFFFFFFFFFFFFFFFFFFF29
:1007E000FFFFFFFFFFFFFFFFFFFFFFFFFFFFFFFF19
:1007F000FFFFFFFFFFFFFFFFFFFFFFFFFFFFFFFF09
:100800000216AC020C51FFFFFFFFFFFFFFFFFFFFCF
:10081000FFFFFFFFFFFFFFFFFFFFFFFFFFFFFFFFE8
:10082000FFFFFFFFFFFFFFFFFFFFFF02146CFFFF53
:10083000FFFFFF020D21FFFFFFFFFFFFFFFFFFFF95
:10084000FFFFFF02107BFFFFFFFFFFFFFFFFFFFF28
:10085000FFFFFF020B29FFFFFFFFFFFFFFFFFFFF6F
:10086000FFFFFFFFFFFFFFFFFFFFFF020C8BFFFFFC
:10087000FFFFFFFFFFFFFFFFFFFFFFFFFFFFFFFF88
:10088000FFFFFF020BB2FFFF13201320FFFFFFFF4C
:100890007856341201000000010000000000F8FF4B
:1008A00007FFFF0000050400000003000147726F0E
:1008B000757000FF040010FFFFFF001410270000F8
:1008C0000020FD000206FFFF1E8C1D00000000003E
:1008D0000000000000000000000000000000000018
:1008E0000000001E000104010C000203C78602D9AB
:1008F00086FFFFFFFFFFFFFFFFFFFFFFFFFFFFFF81
:10090000020119000E040100000000000001F18640
:100910000E005D18451C0001040000ED18000000E9
:10092000E8030000FFFF3E190188130000E8030000
:100930000064006400B801A0BB0D00A0BB0D000264
:100940000202070401051E02051E020A0A0101082F
:10095000080103B80B02803E0102FEFFE8030A050E
:100960000001FFFF020A011401E000000000020084
:100970000000050301010F0300030003000300034F
:1009800000030003000300030005000A0014002810
:10099000004F009E000000072F00000000DB2D002C
:1009A000000000FF000000FF00001216BC604F12A4
:1009B00016CB6012E7548066F61215767011121786
:1009C00059703B090909F4F618F618F618F62212C0
:1009D000154E701512176208080860EAE6447FF6A3
:1009E00018768018E4F618F62212176260161217AD
:1009F000597012E4F608F608F608E65480F609097C
:100A00000918181822EAC0E0EBC0E0ECC0E0EDC025
:100A1000E0E687F0A4FBACF008E687F0A42CFCE449
:100A200035F0FA1809E687F0A42C4B60027401CA6D
:100A300035F0FCE433FB09E687F0D2F7A42CCB3584
:100A4000F0FC1908E687F0A42BCC35F0FBE433FD6D
:100A50000819E687F0D2E7A42C4ACB35F0CD340054
:100A6000FC09E687F0D2E7A42DCC35F0FDE433FA9B
:100A70000918E687F0D2F7A42CCD35F0CA3400FC73
:100A800008E687F0D2E7D2F7A42ACC35F07A7E20A8
:100A9000E70B0ACB33CBCD33CDCC33CC33CB335078
:100AA000147004ED30E00ED2F1E4CD3DCDCC3CCC61
:100AB0003B5005DA05C2F1EB547FC63308E63392AA
:100AC000F0FBE73309E733C39A502D2B70190C0D57
:100AD0004C4D70151806E608C333700D20F10AA2BC
:100AE000F013F6E418800B4024E4F630F002768030
:100AF00018F618F618F68024D33B14501074FFA291
:100B0000F013F6187680E418F618F6800FA2F013AA
:100B1000F618E63303F618ECF618EDF6D0E0FDD043
:100B2000E0FCD0E0FBD0E0FA22C0E0C0D0E8C0E0BA
:100B3000E9C0E0EAC0E0EBC0E0ECC0E0EDC0E0EE10
:100B4000C0E0EFC0E0C008C009C082C083C0F0A20E
:100B5000AFE433F509D2AF85A708AFA1EF5508FE82
:100B600074105E600612190C75A1EF74085E6008BF
:100B700012191275A1F78024EFA2E092F0E508A205
:100B8000E082F05017906198E0F89009ADE0C398CA
:100B9000A2D265D0335002E8F075A1FEE509A2E0CB
:100BA00092AFD0F0D083D082D009D008D0E0FF023D
:100BB0000C37C0E0C0D0E8C0E0E9C0E0EAC0E0EB3C
:100BC000C0E0ECC0E0EDC0E0EEC0E0C082C083C099
:100BD000F0A2AFE433FED2AF9061A4E0F8759B00C1
:100BE000E59158540860087591F71219548023E56F
:100BF0009158541060087591EF12195A8014E591BC
:100C0000A2E092F0E8A2E082F05007E0C2E0F01229
:100C10001A8C9061A3E0F8E5E9585404600E121AAA
:100C20006E75E9FB906193E0A2E640F2EEA2E092DD
:100C3000AFD0F0D083D082D0E0FED0E0FDD0E0FC99
:100C4000D0E0FBD0E0FAD0E0F9D0E0F8D0D0D0E0AE
:100C500032C0E0C0D0E8C0E0E9C0E0EAC0E0EBC0EC
:100C6000E0ECC0E0EDC0E0EEC0E0C082C083C0F0C8
:100C7000A2AFE433FED2AF9061A5E0F8E5BF5854CF
:100C800004600675BFFB121A9880A1C0E0C0D0E8CE
:100C9000C0E0E9C0E0EAC0E0EBC0E0ECC0E0EDC0DD
:100CA000E0EEC0E0C008C009C00AC00BC082C0832B
:100CB000C0F0A2AFE433FED2AFE589A2E15030909C
:100CC000056A7401F0E589540290056BF075081906
:100CD000750900750A00750B00780812141C7A104B
:100CE0007B00900569E0F9121C72740412143775C8
:100CF0008900C2C5EEA2E092AFD0F0D083D082D0FE
:100D00000BD00AD009D008D0E0FED0E0FDD0E0FC46
:100D1000D0E0FBD0E0FAD0E0F9D0E0F8D0D0D0E0DD
:100D200032C0E0C0D0E8C0E0E9C0E0EAC0E0EBC01B
:100D3000E0ECC0E0EDC0E0EEC0E0C008C009C00AD1
:100D4000C00BC082C083C0F0A2AFE433FED2AFE5D7
:100D50008BA2E0503290056A7404F0E58BA2E0E4C7
:100D60003390056BF0750819750900750A00750B4D
:100D700000780812141C7A107B00900569E0F912C3
:100D80001C727404121437758B00C2E8020CF41242
:100D90000DDA30F039120E1F8034120DDA20F01403
:100DA00030E72B74FFFCFBFA747F8022E4FCFBFA33
:100DB0007480801AB48008BC00F2BB00EF800F5032
:100DC000EBF9E4C39AFAE49BFBE49CFCE499C6CCFF
:100DD00018C6CB18C6CA18C6F922E4C9C608CAC6BE
:100DE00008CBC6D3330308CCC63392F0C3947F40FC
:100DF0002E94184019C9B90704CACBCC225025C378
:100E000009CA33CACB33CBCC33CC33D9F422F46008
:100E10000DC9CCC313CB13CBCA13CAD9F6CC22E469
:100E2000FCFBFA2214FCFBFA22C3E498F8E499F9DB
:100E3000120E6A8026C3E49AFAE49BFBE920E7E9F4
:100E4000120E6AE498F8E499F922C3E498F8E49958
:100E5000F9120E6AE498F8E499F9C3E49AFAE49B6B
:100E6000FB22EB20E7CFE920E7E0B90010BB000848
:100E7000E88AF084F8AAF022E4FBC8FA22EB702298
:100E80007B10C833C8C933C9335007C39AC3DBF2D8
:100E900080069A50012ADBEAC833F4C8C933F4C982
:100EA000FA2275F008E4C833C8C933C933C99AC9EE
:100EB0009B5004C92AC93BD5F0ECFBC833F4C8E405
:100EC000C9FA22080808EAC0E0EBC0E086F0E7A40F
:100ED000FA180986F0E7A42AFA180986F0E7A42A86
:100EE000FA180986F0E7A42AFA1986F0E7A4FBE5C8
:100EF000F02AFA190886F0E7A42BFBE5F03AFA1974
:100F00000886F0E7A42BFBE5F03AFA18180986F0FA
:100F1000E7A4C5F02BFBE43AFA1908E7C5F0C6A42C
:100F200026F6E5F03BFBE43AFA1886F0E7A4F6E58E
:100F3000F00826F6E43B08F6E43A08F6D0E0FBD0E9
:100F4000E0FA22E4CFC0E0E4CEC0E0E4CDC0E0E4CB
:100F5000CCC0E075F020E626F608E633F608E63366
:100F6000F608E633F6181818EC33FCED33FDEE33D3
:100F7000FEEF33FFC3EC9709ED9709EE9709EF9762
:100F8000191919400FFFEC97FC09ED97FD09EE9731
:100F9000FE191906D5F0BFECF709EDF709EEF709D0
:100FA000EFF7191919D0E0FCD0E0FDD0E0FED0E059
:100FB000FF222521C582C0E0E52234FFC583C0E0C1
:100FC000E521C3958224F810AF088583228582210C
:100FD0008008858322858221D2AFCEF0A3E520F060
:100FE000A37808E608F0A3DEFAEFF0A3E58124FA7F
:100FF000F8E608F0A3E608F0A3E608F0A30808E680
:1010000008F0A3E608F0A315811581D0E0FED0E03A
:10101000F8158115811581E8C0E0EEC0E022E9797C
:101020009EC608CAC608CBC608CCC6C3702079962F
:10103000CACBCC7019798ECBCC70137986CC700E5C
:10104000F9802ACA33CACB33CBCC33CC331930E73F
:10105000F2CCCBCA3350147004EA30E00DE4CA3A43
:10106000CACB3BCBCC3CCC500209C3E913C6CC184D
:101070002313C6CB18C6CA18C6F922C0E0C0D0E8F0
:10108000C0E0E9C0E0EAC0E0EBC0E0ECC0E0EDC0E9
:10109000E0EEC0E0C082C083C0F0A2AFE433FED275
:1010A000AFC2C0E5D1A2E4500312189AEEA2E092BA
:1010B000AFD0F0D083D082D0E0FED0E0FDD0E0FC15
:1010C000D0E0FBD0E0FAD0E0F9D0E0F8D0D0D0E02A
:1010D00032121744B90003021110E490050178D9C7
:1010E00079178002F0A3D8FCD9FA7AD97B1B900833
:1010F00098781279028015E493A3AD82AE838A8238
:101100008B83F0A3AA82AB838D828E83D8E9D9E743
:1011100075824E7583D574051213E37582607583ED
:101120002B74001213E3E47375F0108E238F248563
:101130008228858327852182852283E0CEA3E0CF84
:10114000852882852783EBC9EAC8EDCBECCAC3E8C2
:1011500033C8E933C9EA33CAEB33CBC3EA9EF52679
:10116000EB9FF525B35004AB25AA26EC33CCED3329
:10117000CDD5F0DAAE23AF2422D083D082ECC0E00C
:10118000EDC0E0E493A3FCE493A3FDED4C600D12ED
:101190001251EC24FFFCED34FFFD80EFE493A3FC3F
:1011A000E493A3FDED4C600D1212EEEC24FFFCED78
:1011B00034FFFD80EFD0E0FDD0E0FCE493A3C0E07D
:1011C000E493C0E022852283852182E0A3FEE0A390
:1011D000F5207808E0A3F608DFFAE0A3FFE0A3C05B
:1011E000E0E0A3C0E0E0A3C0E0E0A3C0E0E0A3C073
:1011F000E010AF08858221858322800885822185C1
:101200008322D2AFD083D0820213E9D083D082E987
:10121000C0E0E493A3C386F0C5F095F0F908E49329
:10122000A386F0C5F095F0700BE493A3C399400535
:10123000E9048002A3E475F002A42582F582E5F0BA
:101240003583F583D0E0F9E493A3C0E0E493C0E0F4
:1012500022C0E0C3E49396087401939618400FE40B
:101260009366700808740193661870007019A3A340
:10127000C3E49396087401939618A3A3400DD0E09D
:10128000D0E0D0E00211B5A3A3A3A3A3A3D0E02292
:101290007404800474028000CCC0E0EDC0E0E5215D
:1012A000C39CCCAD2250011D10AF068C218D228035
:1012B000068C218D22D2AF121365D0E0FDD0E0FC68
:1012C0002274028000CCC0E0EDC0E0E521C39CCCDC
:1012D000AD2250011D10AF068C218D2280068C217D
:1012E0008D22D2AF121343D0E0FDD0E0FC22C0E04B
:1012F000C0F088F0E4936670080874019366187073
:1013000000A8F0A3A3700BD0F0D0E0D0E0D0E002B2
:1013100011B5A3A3D0F0D0E022D083D082CCC0E01E
:10132000E493A360061213A51470FAE493A3600675
:101330001214E51470FAD0E0FCE493A3C0E0E49347
:10134000C0E022CAC0E0E493A3C582CCC582C583B5
:10135000CDC583F0A3C582CCC582C583CDC583DA54
:10136000E5D0E0CA22CAC0E0E0A3C582CCC582C5F0
:1013700083CDC583F0A3C582CCC582C583CDC5838B
:10138000DAE6D0E0CA22C008C3E096F50808A3E078
:1013900096420808A3E096420808A3E09645087024
:1013A00001D3D00822C0E0E493A3D39C5010E4936F
:1013B000A3C39C400AD0E0D0E0D0E0021336A3A340
:1013C000A3D0E0227009080808226016181818C671
:1013D000C333C608C633C608C633C608C633C6D527
:1013E000E0EA22C09FF59FE473D09F22D083D08291
:1013F000C09FE493C0E0740193C0E0740293F59F32
:10140000222521F58210AF08F521400C1522800815
:10141000F52140021522D2AF852283227404800A6E
:1014200074038006740280027401C0E0F404121494
:1014300001D0E01217072200C0D0252110AF08F517
:1014400021500C05228008F52150020522D2AFD090
:10145000D022BB0102E722C082C08389828A83BB7B
:101460000003E08002E493D083D08222C0E0C0D0A9
:10147000E8C0E0A8A8D2AFC2C7E8A2E792AFD0E028
:10148000F8D0D0D0E0326016080808C6C313C618DA
:10149000C613C618C613C618C613C6D5E0EA22C3BB
:1014A000E0C696F608A3E0C696F608A3E0C696F650
:1014B00008A3E0C696F6222521F8E43522F9222574
:1014C00021FAE43522FB222521FCE43522FD2225E8
:1014D0002110AF08F521400C15228008F5214002AB
:1014E0001522D2AF22C0E0E493A36C7009D0E0D003
:1014F000E0D0E0021336A3A3D0E022E0667010082B
:10150000A3E066700A08A3E066700408A3E0662200
:10151000C3E09608A3E09608A3E09608A3E096A28D
:10152000D265D03322E76670100809E766700A08B2
:1015300009E76670040809E76622C3E697F608091A
:10154000E697F60809E697F60809E697F6221919CC
:1015500019E70947097009E727097005E733F422FD
:101560000922C3E096F008A3E096F008A3E096F005
:1015700008A3E096F022181818E60846087009E655
:1015800026087005E633F4220822C3E49396087413
:101590000193960874029396087403939622E026AA
:1015A000F008A3E036F008A3E036F008A3E036F038
:1015B00022E657F60809E657F60809E657F608093D
:1015C000E657F622E026F608A3E036F608A3E03652
:1015D000F608A3E036F622E627F60809E637F6080D
:1015E00009E637F60809E637F622700422600D187E
:1015F000C6C333C608C633C6D5E0F41822E056F693
:1016000008A3E056F608A3E056F608A3E056F62233
:10161000E056F008A3E056F008A3E056F008A3E077
:1016200056F022E647F60809E647F60809E647F6C7
:101630000809E647F622E046F008A3E046F008A3D2
:10164000E046F008A3E046F02206E6700D0806E644
:1016500070080806E670030806E622E4C396F6085A
:10166000E496F608E496F608E496F622600D08C6BD
:10167000A2E713C618C613C6D5E0F322C6F4C608FF
:10168000C6F4C608C6F4C608C6F4C622C3E7960860
:1016900009E7960809E7960809E79622C3E0960845
:1016A000A3E09608A3E09608A3E0962275D0007503
:1016B000813F752101752205000210D1E608460818
:1016C000C3134608336002E633F422E7094709C32F
:1016D000134709336002E733F422600C08C6C313D2
:1016E000C618C613C6D5E0F422E6F008A3E6F00853
:1016F000A3E6F008A3E6F022E0F608A3E0F608A3CC
:10170000E0F608A3E0F622CAC0E0E6F0A308DAFAA1
:10171000D0E0FA22E0FAA3E0FBA3E0FCA3E0FD2284
:10172000EAF0A3EBF0A3ECF0A3EDF022E0F8A3E0E5
:10173000F9A3E0FAA3E0FB22E8F0A3E9F0A3EAF0C2
:10174000A3EBF022E5C754F84401F5C7790122253F
:1017500021F582E43522F58322E727194719471935
:101760004722E62618461846184622C2AF75D69F6D
:10177000020000221213ECBCD5041213ECFAD504BB
:101780001213ECC4D7041213ECA3D8041213EC8187
:10179000D9041213EC75FC031213ECA1FC03121311
:1017A000EC34FE031213EC26FF031213ECB9FF0313
:1017B0001213EC2BE0051213ECB5E0051213ECD775
:1017C000E0051213EC8ED0051213EC55D10512135F
:1017D000EC86D2051213EC3CE1051213EC4DE10549
:1017E0001213ECE7E1051213ECF2E1051213EC0A17
:1017F000E2051213ECFD7F001213EC4EE605121306
:10180000EC19E2051213EC29E2051213EC41E20592
:101810001213ECBEE2051213ECEEFE041213EC738D
:10182000FF041213ECD9FF041213EC29FF02121368
:10183000ECB0FF021213ECBFFF021213EC68960526
:101840001213ECAC96051213EC4A98051213EC87B0
:1018500099051213EC6D9B051213EC53FB01121347
:10186000EC1BFD011213EC56FD011213ECCCFD0133
:101870001213EC61FE011213EC12FF011213EC556E
:10188000E5051213ECE2A0051213EC9AA105121360
:10189000ECE6A2051213ECBCA4051213EC11A5058D
:1018A0001213EC5CA5051213ECC7A5051213ECD7B7
:1018B000A5051213ECEBA5051213ECA1F902121306
:1018C000ECCCF9021213ECDDFC021213ECB7FD02B2
:1018D0001213ECD8FD021213ECF4FD021213EC0DFE
:1018E000FE021213EC06D9051213EC3BD9051213B4
:1018F000EC76D9051213ECE8D9051213EC18DA05C9
:101900001213EC45DA051213ECA2DA051213ECA55A
:10191000DA051213ECB8DA051213ECC4DA05121367
:10192000ECC4CA051213EC18CB051213EC68CB05F6
:101930001213ECD6CB051213EC17CC051213EC7076
:10194000CC051213EC7FCC051213ECA7CC051213B7
:10195000EC98CD051213ECA5CD051213ECB6CD0510
:101960001213EC807F001213ECD07F001213ECFAFC
:101970007F001213EC37A6051213EC98A70512137B
:10198000ECA6A7051213ECB9A7051213ECCEA70518
:101990001213ECE3A7051213ECF6A7051213ECBD26
:1019A000A8051213EC33A9051213ECB5A9051213FF
:1019B000EC8EAA051213EC9EAA051213ECADAA0533
:1019C0001213ECC8E2051213ECEDE2051213EC164B
:1019D000E3051213EC3EE3051213ECF6D2051213E5
:1019E000EC1DD3051213EC94D3051213ECC7C005FC
:1019F0001213ECE0C0051213ECFEC0051213EC123A
:101A0000C1051213EC30C1051213EC3AC1051213D3
:101A1000EC44C1051213EC57C1051213EC48C20582
:101A20001213ECB9C2051213ECE4C2051213EC3226
:101A3000C3051213EC7FC3051213EC9AC3051213EE
:101A4000ECA4C3051213ECEFC3051213EC0AE50571
:101A50001213EC0080051213EC3480051213EC56BF
:101A600080051213EC6F80051213EC8980051213A8
:101A7000ECF480051213EC2781051213EC0C87059A
:101A80001213EC9788051213EC1689051213ECA4B7
:101A90008A051213ECBF8A051213EC328B05121360
:101AA000EC3BD7051213EC4BD7051213EC83D7058B
:101AB0001213EC9CD7051213EC0DD8051213EC325F
:101AC000D8051213EC5DD8051213ECB3D805121328
:101AD000ECD9D8051213ECA6E5051213ECDEAA0525
:101AE0001213ECE5AA051213EC98AC051213ECBC2A
:101AF000AC051213EC4AAD051213EC29AE05121316
:101B0000EC88AE051213EC1DAF051213EC68AF059F
:101B10001213EC58DC051213EC6ADC051213EC7F8F
:101B2000DD051213EC82DD051213ECAFDD05121397
:101B3000ECE5DD051213ECFBDD051213EC3DDE05D3
:101B40001213EC83DE051213ECC7DE051213ECD181
:101B5000DE051213ECE7F6041213ECF1F60412138F
:101B6000EC2EF7041213EC93F7041213ECB0F70405
:101B70001213EC67F8041213EC71F8041213ECBEA4
:101B8000F8041213ECECF8041213ECD6F904121357
:101B9000ECF3FA041213EC41FB041213EC86FB0481
:101BA0001213ECF1FB041213EC64FC041213ECBFEF
:101BB000FC041213ECFAFC041213EC3BFD041213A8
:101BC000EC4DFD041213EC5FFD041213EC7EFD04DA
:101BD0001213EC87FD041213EC39FE041213EC8A85
:101BE000FE041213ECC4FE041213EC4AE4051213B3
:101BF000ECCDDA051213EC7DC7051213ECB3C70563
:101C00001213EC02C9051213EC5BCA051213EC7631
:101C1000A2031213ECF4A8031213EC9CAF031213EB
:101C2000EC2EB2031213EC91B4031213EC2FB50394
:101C30001213EC07B7031213EC40B9031213EC6D47
:101C4000BC031213EC7BBC031213EC45BD0312134F
:101C5000ECE6BD031213EC4DC3031213ECF7C30300
:101C60001213ECE8FF031213EC7AB4051213EC8C98
:101C7000B4051213EC7AB5051213ECABB5051213CB
:101C8000ECF8B5051213EC58B6051213ECC4B60502
:101C90001213ECE1B8051213ECEBDE051213EC6F36
:101CA000DF051213ECC5DF051213EC04E005121377
:101CB000ECA7E4051213ECFB86011213EC07870175
:101CC0001213ECAC87011213EC2888011213ECC438
:101CD00088011213ECCD89011213EC608A011213F2
:101CE000ECF28A011213EC7B8B011213ECBD8B0119
:101CF0001213ECBC8D011213EC9C90011213ECA397
:101D000095011213ECD59A011213ECC49C01121325
:101D1000EC83A7011213EC85A8011213EC1DA90195
:101D20001213ECCEA9011213EC47AA011213ECFE18
:101D3000AB011213ECF1AC011213EC5EAF01121304
:101D4000ECE6AF011213EC4DB3011213EC9FB60198
:101D50001213EC74B7011213EC85BC011213EC16CC
:101D6000BD011213EC51BD011213EC3BC001121363
:101D7000EC22C7011213EC45CA011213ECBCAF05EB
:101D80001213ECD1B0051213ECD1B2051213EC1CF6
:101D9000B4051213EC45B4051213EC34E605121326
:101DA000EC69DA041213EC08DB041213EC16DC0401
:101DB0001213EC37DC041213EC48DD041213ECFCB4
:101DC000DE041213ECA6DF041213EC00E604121377
:101DD000EC55E8041213EC0080041213EC0B8004A1
:101DE0001213ECA381041213EC6B86041213ECCCD7
:101DF00086041213EC4A88041213EC478904121368
:101E0000EC378A041213EC708D041213EC468F0425
:101E10001213EC3591041213ECCF94041213EC3C22
:101E200097041213EC4298041213EC26990412132F
:101E3000EC9B99041213EC229A041213EC719C048B
:101E40001213ECA49D041213EC8B9F041213ECDA12
:101E50009F041213EC37A0041213ECB0A004121369
:101E6000ECDCA4041213ECE0A5041213EC40A7046C
:101E70001213EC30A8041213ECBCA8041213ECF5F6
:101E8000A8041213EC13AA041213ECB6AA0412133A
:101E9000EC3EAB041213ECEAAD041213EC11AF04E8
:101EA0001213EC61AF041213EC75B0041213EC9D25
:101EB000B0041213ECA0B0041213ECAEB004121371
:101EC000ECD2B0041213EC42B1041213EC7BB10457
:101ED0001213ECA7B1041213ECBAB1041213ECE61E
:101EE000E3051213ECF1FF011213ECD9B104121344
:101EF000ECFCB1041213EC60B3041213ECA9B304AC
:101F00001213EC54B4041213ECBDB4041213ECC05D
:101F1000B4041213EC52B5041213ECDBB504121323
:101F2000EC8CB6041213EC8FB6041213EC2DB7042C
:101F30001213ECAABC041213EC6ABE041213EC9F39
:101F4000BE041213EC5AC2041213EC88C304121319
:101F5000EC9FC4041213EC6BC5041213EC8BC60483
:101F60001213EC4DC8041213ECEAC8041213EC046B
:101F7000E1031213EC0EE2031213ECBBE2031213A3
:101F8000ECC5E3031213EC9EE4031213EC84E603A6
:101F90001213EC3AE7031213EC08E8031213EC19DE
:101FA000EA031213EC1AEC031213EC0CED031213F8
:101FB000ECE6EF031213EC42F1031213EC45F203CB
:101FC0001213EC24F4031213EC32F7031213EC5344
:101FD000F9031213ECECF9031213EC10FB031213C8
:101FE000ECE6C4031213EC4BC5031213ECACC503AF
:101FF0001213EC7FC7031213EC23C8031213EC4C2B
:10200000C8031213EC45CC031213EC5CCC0312137F
:10201000EC5FCD031213EC1CCF031213EC27D0039B
:102020001213ECDCD0031213EC5CD1031213EC0D91
:10203000D2031213ECF9D3031213ECDBD403121303
:10204000EC42D6031213EC53D8031213ECDCDA0380
:102050001213ECBCDC031213EC7FDD031213ECF75C
:10206000DD031213EC0EDE031213EC0FDF03121369
:10207000ECF2DF031213EC61E0031213EC22BD0556
:102080001213EC19BF051213ECD8BF051213EC3C68
:10209000C0051213EC3BCB041213EC88C4051213D9
:1020A000ECD1C4051213ECF9C4051213EC1FC505DD
:1020B0001213EC37C5051213ECFFC5051213EC140F
:1020C000C6051213EC37C7051213EC40C7051213EF
:1020D000EC49C7051213EC52C7051213EC5CC70597
:1020E0001213ECB89B051213ECDBA0051213ECE005
:1020F000A0051213ECC3D5051213ECEAE505121383
:10210000ECEEB8051213EC16E6051213EC35D50407
:102110001213EC8DE3051213EC9AD5011213ECCDDA
:10212000D5011213EC39D6011213ECD4D6011213D7
:10213000EC71D7011213ECB6D7011213ECD8D7010A
:102140001213ECF1D7011213EC17D8011213EC396A
:10215000D8011213EC77D8011213ECBBD80112137B
:10216000ECDDD8011213EC3FD9011213EC06DA01B1
:102170001213ECBDDA011213EC2FDB011213ECFA8F
:10218000DB011213EC4DDC011213ECB3DC01121372
:10219000ECEDDC011213EC3FDD011213ECADDD01BF
:1021A0001213EC18DE011213EC1BDE011213EC9C6F
:1021B000DE011213EC33DF011213ECB3DF01121353
:1021C000ECD2DF011213EC36E1011213EC43E10112
:1021D0001213EC4FE2011213EC5CE2011213EC65F6
:1021E000E2011213EC3DE4011213EC57E501121366
:1021F000ECD0E5011213EC42E6011213EC64E601A7
:102200001213ECF8E6011213ECCCE8011213ECA364
:10221000EC011213ECB7EC011213ECC7EC01121332
:10222000ECD1EC011213ECDAEC011213ECE3EC014B
:102230001213ECEDEC011213EC1AED011213EC4346
:10224000ED011213EC4EED011213EC72ED011213BD
:10225000EC96ED011213EC00EE011213EC46EE01C8
:102260001213EC63EE011213ECE0EE011213EC1703
:10227000EF011213EC56EF011213ECA3EF0112134E
:10228000EC29F0011213ECF7F1011213EC7AF201D0
:102290001213EC5EF3011213ECC5F5011213EC1EE0
:1022A000F6011213EC68F6011213ECC3F7011213D6
:1022B000ECF8F7011213EC4AF8011213ECFFF801E5
:1022C0001213ECAEF9011213ECEBF9011213EC80CE
:1022D000FA011213ECECFA011213ECC031001213E4
:1022E000ECF231001213EC2032001213ECF6330042
:1022F0001213ECD634001213EC2E35001213EC69D5
:1023000036001213ECB536001213ECDE390012134E
:10231000ECD13C001213EC213E001213ECB73E004E
:102320001213ECC33E001213ECF53E001213EC78CE
:1023300040001213EC2942001213ECBD42001213AC
:10234000EC0043001213EC4943001213EC9D4300D0
:102350001213EC1244001213EC8144001213EC9E91
:1023600044001213ECCE44001213EC034500121388
:10237000ECD345001213EC7C46001213EC0249002A
:102380001213EC224A001213EC0D4B001213EC8FC7
:102390004B001213ECC34F001213EC005000121349
:1023A000EC5850001213EC8B50001213ECF5500057
:1023B0001213EC2B51001213ECB651001213EC0E59
:1023C00052001213ECE552001213EC9E530012134C
:1023D000EC3954001213EC4157001213EC5D580015
:1023E0001213EC005C001213ECF45C001213ECF717
:1023F0005C001213EC265D001213EC2C5F0012132C
:10240000EC0560001213EC4860001213EC9E6100B2
:102410001213ECDD61001213EC6662001213EC9AE9
:1024200062001213EC5F63001213EC776500121365
:10243000ECE865001213EC2866001213ECB6660097
:102440001213ECD867001213EC9A68001213ECA177
:102450006A001213ECB96A001213ECCD6A00121371
:10246000EC056B001213EC336B001213ECB26C0032
:102470001213ECD76D001213EC346E001213ECE65D
:102480006E001213EC0D6F001213ECD46F001213D8
:10249000EC6C70001213EC9272001213ECC7720015
:1024A0001213EC2A73001213EC5974001213EC018E
:1024B00075001213EC3275001213EC4A75001213FA
:1024C000ECD975001213EC8D78001213EC657A00CC
:1024D0001213EC817A001213EC9D7A001213EC6B4C
:1024E0007B001213EC5E7F001213EC0080021213CB
:1024F000EC3280021213EC2184021213EC6D840280
:102500001213ECB384021213EC5585021213ECB1D2
:1025100085021213ECF685021213EC3D87021213AA
:10252000EC5188021213EC408C021213ECC48C02A2
:102530001213ECD18D021213EC2D8E021213EC1D2E
:1025400090021213EC9290021213EC9C9002121360
:10255000ECA990021213ECD490021213ECBB91027E
:102560001213EC6592021213ECE392021213EC03C5
:1025700093021213EC2C93021213EC4E93021213DB
:10258000ECAE95021213EC7496021213ECB996029B
:102590001213EC3697021213ECE797021213EC19A0
:1025A00098021213EC5F98021213EC9B980212131C
:1025B000ECEB98021213EC3F99021213EC9599027E
:1025C0001213ECE199021213EC4E9A021213ECC9A9
:1025D0009A021213EC949C021213EC949D021213B3
:1025E000ECB99E021213ECF8A1021213EC0BA50237
:1025F0001213ECC8A5021213EC0CA6021213ECBCC9
:10260000A7021213ECD0A7021213ECDAA7021213DE
:10261000ECE4A7021213ECF0A7021213EC0CA802D0
:102620001213ECB7A8021213ECF6A8021213EC0076
:10263000A9021213EC0AA9021213EC7AA9021213CE
:10264000ECC5A9021213ECDAAA021213EC36AB02A3
:102650001213ECB7AB021213EC76AC021213EC7F40
:10266000AD021213ECB3AE021213ECA1AF021213BF
:10267000ECB9AF021213EC14B0021213EC32B00238
:102680001213EC7AB0021213ECA1B0021213EC3C5C
:10269000B1021213EC02B2021213EC94B202121342
:1026A000EC0EB3021213EC28B4021213ECD5B402F0
:1026B0001213ECFDB5021213EC4DB6021213ECB17D
:1026C000B6021213EC13B7021213EC41B702121345
:1026D000EC65B7021213EC9AB7021213ECCBB702F7
:1026E0001213ECFEB7021213EC1EB8021213EC86A2
:1026F000B8021213EC7AB9021213ECD5B902121314
:10270000ECFEB9021213EC86BA021213EC09BB02FA
:102710001213EC34BB021213EC19BC021213EC536B
:102720008B051213EC8B8B051213ECAC8B0512137B
:10273000ECEE8B051213EC508C051213EC5A8C0541
:102740001213EC6A8C051213ECA58C051213EC85A0
:1027500090051213EC7292051213EC5894051213A3
:10276000ECEF94051213EC9195051213EC1BBE02CD
:102770001213EC99BE021213ECF5BE021213EC40D8
:10278000BF021213EC5BBF021213EC86BF021213DE
:10279000ECA3BF021213ECAFBF021213EC46C1024E
:1027A0001213EC5FC1021213ECE4C1021213ECF736
:1027B000C1021213EC16C2021213ECBAC2021213B7
:1027C000EC3BC4021213ECEEC5021213EC84C602F9
:1027D0001213EC87C6021213ECF7C6021213EC15A3
:1027E000C7021213ECACC7021213ECF4C7021213A7
:1027F000ECF7C7021213ECBDC8021213EC2AC9028F
:102800001213EC50C9021213ECDBC9021213ECF9DB
:10281000C9021213EC3FCA021213ECF3CA021213DC
:10282000EC3DCB021213EC6CCB021213ECC9CB02C1
:102830001213ECFECB021213EC2ACC021213EC386A
:10284000CC021213EC85CC021213ECF5CC0212135D
:10285000EC3ECD021213EC8ACD021213ECB6CD027F
:102860001213ECC1CD021213ECDFCD021213ECCA2D
:10287000CE021213ECD4CE021213EC0FCF021213BD
:10288000EC1FCF021213EC28CF021213EC7CCF0204
:102890001213EC90CF021213ECBFD0021213ECD43F
:1028A000D0021213EC62D1021213ECA7D102121360
:1028B000EC33D2021213EC3ED2021213EC80D3029C
:1028C0001213EC9BD3021213ECE7D3021213EC5653
:1028D000D4021213EC8FD4021213ECA9D4021213F7
:1028E000ECEBD4021213ECBBD7021213EC68D80243
:1028F0001213ECD5D8021213EC15DB021213EC2DD7
:10290000DB021213EC30DB021213EC3CDB0212137D
:10291000EC50DB021213EC58DB021213EC8BDB02DF
:102920001213EC8DDC021213EC14DD021213EC8492
:10293000DD021213EC06DE021213ECC7DE021213E4
:10294000ECE6DE021213EC87DF021213ECE4DF0286
:102950001213ECE7DF021213EC5BE0021213ECAA95
:10296000E1021213ECB0E2021213EC3BE302121389
:10297000EC56E4021213EC1EE5021213EC4FE502D2
:102980001213EC72E5021213EC7BE5021213ECAAAF
:10299000E5021213EC3AE6021213ECF0E60212130F
:1029A000EC65E7021213EC0CE8021213EC81E8026A
:1029B0001213ECB8E8021213ECF6E8021213ECF86A
:1029C000CA041213EC7CCA041213ECF0CE051213E5
:1029D000ECE9CD051213EC6FF9021213EC3BF70290
:1029E0001213EC71F6021213ECC4F5021213ECBAD6
:1029F000F5021213ECA6F5021213ECE7D40412133D
:102A0000EC54D4041213EC64F4021213ECF3F2024B
:102A10001213ECC2D3041213EC9AD3041213ECD9A0
:102A2000EE021213ECE2E9021213EC2CE90212138B
:102A3000EC60A2031213EC56A2031213EC649E0383
:102A40001213EC429D031213ECF89C031213EC15C5
:102A50009B031213EC7095031213EC9B910312135A
:102A6000EC1D91031213EC5290031213ECDC8F0354
:102A70001213EC0C8F031213EC6E8E031213ECC2C4
:102A80008C031213ECEC8B031213EC428B03121326
:102A9000EC46D3041213ECB4D2041213EC28D20483
:102AA0001213ECA0D1041213EC3DD0041213EC4924
:102AB000CF041213ECB7CE041213EC3D8B031213A8
:102AC000EC318B031213ECB385031213EC818503F5
:102AD0001213EC6CCE041213EC1385031213EC6486
:102AE00084031213ECAC83031213EC6283031213FE
:102AF000EC54CE041213EC5783031213EC63E3057A
:102B00001213EC1381031213EC6F80031213EC29E0
:102B100080031213EC0080031213ECA7F6041213C7
:102B2000EC7AF6041213ECECF5041213ECB2F50493
:102B30001213EC22F2041213EC7AEF041213EC5F7E
:102B4000EC041213ECB1EB041213EC87CB04121358
:102B5000EC32EB041213EC3AEA041213EC32C40523
:102B600000000080FB8F000100A71C87000100A56A
:102B70001C350004006E1C25000200721C26000299
:102B800000741C27000200761C28000100801C290C
:102B9000000100811C84000400C91986000100E7BF
:102BA0001B2A000100821C2B000100831C2C000149
:102BB00000871C2D000800D5192E000100881C2F4D
:102BC000000100891C300001008A1C310001008BCB
:102BD0001C32000100DD1933000100DE1934000150
:102BE000008C1C36000100DF19380001008D1C39F3
:102BF000000100861C83000200A31C63000100EB9F
:102C00001964000100841C65000100851C6D000131
:102C100000EC1971000800CD1966000100A21C43E8
:102C2000000100931C44000200941C450001009622
:102C30001C46000200971C47000800E319480001E9
:102C400000991C4B0001009A1C04000100A61CA165
:102C5000000100AA1C37000100A91C88000100A87F
:102C60001C3C000100E0193D0001008E1C490002DF
:102C7000009B1C67000100ED194D0002009D1C4ED9
:102C80000001009F1C4F000200A01C3E00010092AA
:102C90001C51000100E11952000100901C53000179
:102CA00000911C54000100E2190000000000000027
:102CB0000136360101000102010001030100010497
:102CC00001060605020000070100340801000F0993
:102CD0000401010D0100FF0E080000170200001999
:102CE0000100FF1A0100011B0100FE1C0100081D6C
:102CF0000200001F01000120010001210200002349
:102D000001000F240200002601000127010008280D
:102D10000200FF2A0100072B0102402C0100002DB8
:102D20000100012E0100012F0100FF30010B1D31B8
:102D30000800003A0100083B01000F3C0100013D82
:102D40000100FF3E04000042040000460400004A67
:102D50000400004E04000052040000560400005A13
:102D6000040000000000002001F6860000010020A1
:102D700001F586000002002001F986000003002012
:102D800001FA86000004004201B3860000050042FB
:102D900001FA850000060042010B860000070030A2
:102DA00001F7860000004042010B860000FDFF2174
:102DB00001F386010020002005F81B0100210020FE
:102DC00005F91B03000000212379180300FDFF21F2
:102DD00001F3860600FDFF2101F386010371030163
:102DE0000301030103010301032203020301031092
:102DF0000300030003000300030003000300034279
:102E00000300032403060300030003040312032545
:102E10000323032503230304030403000300030027
:102E2000034403000300032303000365032100356B
:102E300003810300030503000300030003000325CF
:102E400003230303027102300160021102700201C8
:102E500002020202028002100261023A0041006393
:102E6000027302720262024302000213023800007F
:102E70000200020402120200020002000200020428
:102E8000020402370037003C02440200023900000D
:102E90000200026502000235028102000205028280
:102EA000028302000201017101010101011101010E
:102EB000013101010101018001100161013B001498
:102EC00000630173017201620143010001130106F5
:102ED000013D013500040112010001000100010063
:102EE0000104010401330133013C01440132013684
:102EF00000000100016501000135008101000105AC
:102F000001820183010001030071003001600011A2
:102F100000700031022003500480001000610000A6
:102F2000001400630073007200620043000000138D
:102F30000006000000000004001200000000000075
:102F400000000004000400370037003C0244000089
:102F50000000000000000065000000350081000056
:102F6000000500000083000000360001000600009C
:102F7000000F00000000000000000000000000033F
:102F8000FFFF00000403FFFF0000FFFF0FF401003C
:102F900005C4040320000100000B00000000000035
:102FA000000003010F00000000000000000000000E
:102FB0000000000000000000000000000000000011
:102FC00000000000000000381D621D3E1DCC1C44A6
:102FD0001D681D441D741D4A1DCC1C441D681D50D8
:102FE0001DCC1C00000000561DCC1C000000000081
:102FF0000000005C1DCC1C00000000000000000070
:1030000000000000000000000000000000000000C0
:1030100000000000000000000000000000000000B0
:1030200000000019000000F0817E18190001002343
:1030300081321C190002002381361C190003002173
:103040008186181900040023813A1C19000500210B
:10305000813E1C19000600308188181900070021E4
:103060008189181900080021818B18190009002195
:10307000818D1819000A0023818F180000961F0106
:1030800000961F02000C1F0280061F0300121F047F
:1030900000181F04801E1F0500241F06002A1F3170
:1030A000003C1F3300421F3400481FFFFF00000395
:1030B0000003000400080010001F003E007B00F623
:1030C00000EC01D703AF075D0FB91E713D0000078B
:1030D000ECFDFDFDECDCDCCCBCACAC9C9C8C7C7CCD
:1030E0006C6C5C5C5C4C4C3C3C2C2C1C1C03EAF572
:1030F000E5D5D5C5B5A59595858575756565555590
:103100004545353525251515050A6025022A25056D
:1031100036250730250C12250D1E25FF0000001650
:103120000F00000B150B020002220F3300000E0FE0
:103130005A6967426565416C6C69616E63653039D7
:10314000D0D1D2D3D4D5D6D7D8D9DADBDCDDDEDF07
:10315000303016181920231A1C1E3000034D4C461F
:1031600051181A25050200011916181616182303FE
:1031700000303017181921301B1D1F30003C404211
:103180003A3F3F392F47300C0E020B040B0A070859
:10319000000F020402010101010902E8030000001E
:1031A000BE040A0E0001000300E803FF040F090338
:1031B0001E1E03100C04040828020C0508150A043E
:1031C000C082C0831229C2901A1674F0F0A3742230
:1031D000F0901A1874F6F0A37422F0901A1A74FC86
:1031E000F0A37422F0901A1C7402F0A37423F0026E
:1031F0005FFE74F7120FB2901A0AE4F0E9901A0910
:10320000F07CE37D197A0B7B1A121CA8901C99E0C4
:10321000901A13F0901A1474CDF0A3741902418817
:1032200074F0120FB2EAFEEBFF5480700302339188
:10323000901A0912421D700302338AEA241B125BA2
:103240008B707CEA241F125B8B64137002A3E07006
:103250006E8A828B831233DF901A2412511D750AF5
:1032600000750B00800D12405E1271FD121C06AA43
:103270000EAB0FEA4B60488A828B83E0650C7004CA
:10328000A3E0650D702C8A828B83A3A3A3A3E0F532
:103290000EA3E0F50FE50A450B8A828B83A3A3A357
:1032A000A360C3124404850A82850B83A3A3A3A34E
:1032B00080B78A0A8B0B8A828B8312511980B4E5FE
:1032C00008242A125B8BFCE5082402F8E43509F98E
:1032D000E8FAE9FB901A241234C6A3A3E064027052
:1032E0003C8A828B8312511D800B88828983A3A321
:1032F000A3A3124404E849601F88828983E06A70AE
:1033000003A3E06B70E488828983A3A3E06C70DA86
:10331000901C9F125EBB806BECF912232C850882F7
:10332000850983E06401704FE50824181233C81240
:1033300014281267A5121290E50824121233C8123D
:103340001428E508124211121424E508240B126710
:10335000A9121294E50824171241AEE5082402FCD4
:10336000E43509FDE5082419FAE43509FB122B3C84
:10337000740A121437800CE064027007AA08AB09C3
:1033800012241CAA08AB09121B7CEEFAEF648080A1
:103390002DEA5402600C901CB67401F0EA6402FA43
:1033A0008023EA5408601A122326EA4B700B901A05
:1033B000261266807A081233D5EE6408FAEFFB8095
:1033C000047A007B00026E2FF582E43509F583E074
:1033D000F50A780A22FB901A09E0F9121C7E22A352
:1033E000A3E0F50CA3E0F50D227B00901A09E0F9AB
:1033F000121C7274042274F4120FB28A088B098AA8
:10340000828B83A3A3A3124F151241B938F583E031
:103410002409FA126DC770030234B98A828B83744F
:1034200002124F8A8508828509831234C6E8F0A308
:10343000E9126A418A828B83A3A3A3A3A3A3A3A3B4
:10344000F0E5082403F8E435091234BB1241B93A17
:10345000F583E08E828B83A3A3A3A3F0EE2409FA65
:10346000E43FFB8E828F83A3A312616DF583888274
:10347000E0A2E58E828F83A3A3A3A3A350047401CB
:103480008001E4F0E5082403F582898312511DEAE6
:1034900012569E3BF583126D8E1214201241B83BDA
:1034A00012625F8E828F83A3A3127F3D121437EEC8
:1034B000FAEFFB901A09126E148016F98882F583D0
:1034C000E0FAA3E0CA221252BAA3A3227402121491
:1034D000377F040211C574F2120FB28A088B09EC0F
:1034E000FAEDFB740E12174FE0FC122AAC8A0C8B1B
:1034F0000DAE0CAF0DEA4F6030AC08AD09122AD00A
:10350000E96026AC08AD09EEFAEFFB122AB2E970C9
:10351000148E828F8312438CFAEFFB122AEEAA08D4
:10352000AB09122A947900800279B402520974F02E
:10353000120FB274F61214CFEAFEEBFF8C088D095D
:10354000750FB3852182852283E4F0750E00800219
:10355000050E9031B6E493F8E50EC39840030236A9
:1035600055AA0E7B001229F88A0A8B0BEA4B60E001
:103570008A828B83A3A312365C28F0F8C3EE98EFFF
:10358000940050CC7C157D007900AA08AB09121B71
:1035900064850A82850B83A3A3A3A312723AE0F881
:1035A000EEC3982925E0F8E433F9E50A28F582E529
:1035B0000B39F583A3A3A3A3A3A31241C3A3125C56
:1035C000E28A0C8B0DAC0CAD0DAA08AB09121CA83D
:1035D000850A82850B83A3E06401700A1267A574D3
:1035E000011241D5804474011214C7850A82850BEB
:1035F0008312511B122A8EE9603D740912174FE0A5
:10360000C0E01267A5D0E0F0740912174FE0640320
:10361000701374011214C7E508240BFAE43509FB92
:10362000121CA88012740112174F124404E50812EC
:103630005CC835091271FB850A82850B831267B15C
:103640001241D5A3A3E0C0E0E50824141267A9D075
:10365000E0F0750F00A90F740A026E2CA3A3A3E07B
:10366000F8852182852283E02274F7120FB2E9FEE9
:103670008A828B83A3A3A3A3A3A3E0540860338A05
:10368000828B83A3A3A3A3A3A3E0540260218A8215
:103690008B83A3A3A3A3A3A3A3A3A3E06406600FA8
:1036A00074E96E600A74CD6E600574F06E7003127A
:1036B000230E024B0874F0120FB274EF1214CF7481
:1036C0000F12174F126564740812174FE9F0ECFEE1
:1036D000EDFF740512174F1248D0124AF4A3E0F917
:1036E000122AA0740612174F126564740612174F3F
:1036F00012572F70030239701241FDE0FA7406125E
:10370000174FE0F912224E1239D0F8A3E0F9E84938
:103710007003023970EE2403F50AE43FF50BEE2442
:1037200006F508E43FF5097C00850882F58312510F
:103730001D850A82850B83E0F9122A9A74031217F9
:103740004F126564850A82850B83E0C0E085218283
:103750008522831239C9D0E0125844F98521828527
:10376000228312406512539612365FFAA3E0CA24F0
:1037700007F582E43AF583E8F0A3E412656F2406C6
:10378000F582E438F583E4127207124F091214200F
:10379000EE1241B93F12625F740312174F124F15B8
:1037A0002409127F37121437742912174F127234FA
:1037B0001234C01258573A1271FB742B12174FE093
:1037C000C0E08521828522831256F6D0E0F0740293
:1037D00012174FE4F0742512174F78081216F802EA
:1037E00038C7740312174F1262278882F583123983
:1037F000B8A3A3A3125CEDFB122A16850E82850FD7
:1038000083A3EAF0A3EBF0740312174F1239C9A394
:103810001239B8125EFCA2E6500F850E82850F8326
:10382000A3A3A3A3A3E0D2E1F0740512174FE070A5
:103830006B850E82850F83A3124404901A64E0689E
:103840007003A3E0697055850E82850F83A3A3A33F
:10385000124198750C00780C121428780812141C68
:10386000742912174FE0F50C780C121428742712E3
:10387000174F121294901A7112129479007419123F
:10388000174F1250ED122464740A121437850E82F9
:10389000850F83A3A3A3A3A3E04405F0740212172A
:1038A0004FE004FC8E828F831251178E828F83A388
:1038B000A3A3E0F9122A9A740312174F12656474D5
:1038C0000212174FE004F0740312174F12572F60C3
:1038D00067740212174FE0FA740612174F1244046D
:1038E000C3EA98E4995051740212174F123CA28512
:1038F0002182852283E028F8A3E039F9E8240FF536
:103900000EE439F50F850E82F583E4F07403121787
:103910004F1239C3640160030237E2740512174F76
:103920007401126E1AF0740312174F125FEE123CFC
:10393000C5E8F0A3E9023806852182852283125169
:103940001D1222548521828522831212947426121C
:10395000174FE0FD742512174FE0FC740A12174F41
:10396000E0F9EEFAEFFB12230874021214378043D9
:103970008E828F83A3A3A3E0C0E0740C12174FD0F4
:10398000E0F0126C83E0C0E0740D12174FD0E0F04D
:10399000740612174F12572F7009740E12174F74B6
:1039A000B98007740E12174F7410F074091214BF07
:1039B00012245E7411026E2CE0850E82850F83A3A3
:1039C000A3A322E012581CE022E012581CA3A32259
:1039D000852182852283EAF0A3EB1257382274F006
:1039E000120FB274E11214CF740412174FE9F0747D
:1039F0000312174FECF0740212174FEDF08A0E8B82
:103A00000F742F12174F1233E1AA0CFB12224274CB
:103A10000112174FE9F0AA0CAB0D122248740112E3
:103A2000174FE07003023C9D852182852283E4804C
:103A3000158E828F83A3A3A3A3A3E0D2E3F08521F5
:103A400082852283E004126D72F8852182852283AB
:103A5000E0C3984003023C94740112174FE07003D6
:103A6000023C94852182852283123CA2E50C28F831
:103A7000E50D39F9E8240FFEE439FF8E82F583A3C2
:103A8000A3A3A3A3E0A2E040B5750800750A0875DA
:103A90000B00740212174FE060037508207C087D4C
:103AA00000790074051214BF121B648E828F83E0AC
:103AB000603E901AB4E06401701AE508D2E3F5089C
:103AC000750B10123CB212174FE8F0A3E9125BE03D
:103AD00074FF807643080C750A0C8E828F83A312C4
:103AE0003CBD1271FD740512174F74FFF0A3805A8C
:103AF000740412174FE06009E508D2E6F508750A6C
:103B00000A8E828F83A3E064FE7003A3E0F470301A
:103B1000741212174F74041267CFF8741D12174FE6
:103B2000E8124F8A74121214BF1221707D007C00BB
:103B30007900741512174FAA82AB83121F78800B7D
:103B4000123CB212174FE8F0A3E9F0740712174FB6
:103B5000E508F01241F4C0E0740912174FD0E0F00C
:103B6000740A12174F7401F074051214BF12242244
:103B7000741112174FE06003023C72740D12174F5C
:103B800012583F8E828F83A3A3A3A3F0740D121744
:103B90004F124F58E50AF0A3E50BF0740312174FCC
:103BA000E0C0E0124EE9D0E0125EFC6011901AB461
:103BB000E0C0E0740D12174F124F33D0E0F0740DD7
:103BC00012174F124404850C82850D83A3A3A3A36F
:103BD000A3123CAB241C12655E127217123CAD128C
:103BE0005EAE39126CA2C0E0124ED0D0E0126D670A
:103BF000C0E0740D12174F124A16D0E0126A68C066
:103C0000E0740D12174F124A0CD0E0F0740D121729
:103C10004F123CBD123CAB242A12655E850E828594
:103C20000F83A3A3A3A3A3A3A3A3E01265571241E9
:103C3000E3C0E01249F8D0E0F0740D12174F1251B2
:103C40001D850E82850F83126D7D2428F582E43B4D
:103C50001271FB1241EC126D8E121420126258EA9E
:103C60001264F03B127F3B12143774051214BF121A
:103C700024288E828F83A3A3A3A3A3E0D2E0F074B1
:103C80001112174FE06003023A31740112174FE02E
:103C900014023A3D7900AA0CAB0D122314741F02D2
:103CA0006E2CE075F007A4F8A9F022A3A31251210D
:103CB000E8228E828F83A3124408740522E0123C0E
:103CC000C5A3A3A322F8A3E0F9850E82850F83A3E1
:103CD0002274F0120FB274E81214CFE985218285A4
:103CE0002283F08A0E8B0F8A828B83A3A3A3A3A3C4
:103CF000A3A3A3E0F912226C8A088B09EA4B700394
:103D0000023DAEE50E1256B212420C1241A38521BD
:103D100082852283E06003023DB17C04850E8285AA
:103D20000F83A3A3A3A3A3A3A3A3E0F9122272EE7C
:103D30004F607B8E828F83A3A3A3A31244047407D6
:103D400012174F126695124404740912174F124F3E
:103D5000BAC0E0741112174FD0E0126A46A3A3A3B1
:103D6000A3A3A3A3124404740F12174F1271FD747E
:103D70001212174FE4126E22C8241FF582E438F5A0
:103D800083126223C413135403FC70027C048E82DA
:103D90008F83E0F97808121424742059FD74405977
:103DA000F974031214BF1223087402121437026E3E
:103DB0002A7C08850E82850F83A3A3A3A3A3A3A3B4
:103DC000A3E0F91222728B0BEA4B7003023D2FEE37
:103DD0004F60DB852182852283E0F50C780C12147C
:103DE00028850882850983A3A3A3A3A3A3A3E0F541
:103DF0000C780C1214288A828B83A3A3A3E0FB8A7D
:103E000082850B83127A5A8A82850B83E0FA8E822E
:103E10008F83A3A3E0F9122B427402121437023DE0
:103E20003374F7120FB274FA1214CFE9FE780179E5
:103E3000017F00800379000F125299E0FCEFC39CD0
:103E40005026EF75F007A4FC85F008AD08EA2CFCBD
:103E5000EB3DFD124888E0A2E050DA540C60D6E059
:103E6000A2E250D3780080CF8A828B83A3A3A3A33E
:103E7000A3A3E0703DE9A2E0400574016E70338AAF
:103E8000828B83A3A3A3A3A3A37401124175E0C0F3
:103E9000E0740312174FD0E01248E7E0C0E074046A
:103EA00012174FD0E0F0740512174FE81261C212DA
:103EB000245E7406024B05C082C08379011223146C
:103EC000025FFE74F4120FB2EA4B901CB66019E464
:103ED000F08A088B09F50AF50B780812141C7A028F
:103EE0001233E9121437800A7401F07A027B00124F
:103EF00033D60234D174F0120FB274F31214CF74AB
:103F00000312174FE4F0A3F0901A241241A3740196
:103F100012174FE4F0A3124F8F04F0901A5EE0A244
:103F2000E35003023FE8124169740912174F121758
:103F300038740912174F78081216F8901A26780864
:103F400012149F740512174F78081216E912406C6C
:103F5000740512174F780812169C50077A017B00DF
:103F6000024059740512174F780C1216F8901C9ED7
:103F7000E0F509780C7908120F43A80CA90D901CE4
:103F80009FE0C398E4995003E08001E88521828591
:103F90002283F0740912174F78081216F8C008C06F
:103FA00009C00AC00B740512174F780C1216F812CC
:103FB000406C780C7908120F43E4F50AF50BD00F2A
:103FC000D00ED00DD00C780C790812153A901A2624
:103FD000780C1216E9801112405E1271FDEEFAEFB4
:103FE000FB121C06AE08AF09EE4F60658E828F8310
:103FF00012365CC398502DEE2403F8E43FF9E0FA42
:1040000088828983E0C39AF06023740312174F12E9
:1040100045C9740112174FEEF0A3EF1266B0FEA36C
:10402000E0FF80C48E828F83A3A3A3E4F08E828FEF
:1040300083127EF4740112174F12572F8E828F83D2
:10404000A3A3A3A3609112668912174F1240658043
:1040500089740312174F12511D740D026E2C1244F5
:1040600008901A242212624EA3A3A322901C9D1230
:104070007EFCE4F50AF50B2274F0120FB28A088B6D
:1040800009890A78007900901A241241A3FBEE4BAB
:10409000601E088E828F83A3A3A3A31250E7601033
:1040A00008E87001098E828F8312419FEA4F70E306
:1040B000901CA012511DC3E89AE99B400302415C89
:1040C0007A0612415FA80CA90DEA49700302415C0F
:1040D0008A828B83E508F0A3E50912417EE50AF0A8
:1040E000901C9F1252A1124175A3E4F0A3F0901A04
:1040F000241250E7600D8E828F83A3A3A3A31271B5
:10410000FD8017901A241271FD901A5EE0A2E34020
:1041100009124169901A26121738901A5EE0A2E33C
:10412000503A7A087B00901A09E0F9121C84EA4B95
:104130004C4D7028901C9DE0F508A3E085080CF517
:104140000DE4F50EF50F780C12141C7A087B009024
:104150001A09E0F9121C787404121437026E2F7BCE
:1041600000121C008A0C8B0D22121C90EAF8EBF94D
:10417000ECFAEDFB221241792212417EA322F08A51
:10418000828B83A3A322E508F0024B08F08E828F76
:1041900083A3A3A3A3A3A322125B99A3A3F022A3A7
:1041A000A3A3A3E0FEA3E0FF227F050211C5F582D1
:1041B000E43509F583E0F922EA1241BD222410F525
:1041C00082E4221241CBA3A3A3A32212440C8508AC
:1041D00082850983221241D922F0850A82850B83C8
:1041E000A3A322E50E2411124209E022E50E240EBB
:1041F00012420922E50E2410124209E02212420165
:1042000022EE1241BD3FF58322F582E4350FF5839E
:1042100022240FF50AE43509F50B780A22E0F91299
:104220001B888A088B09EA4B2274F2120FB2890BA1
:104230008A088B098A828B8312511D122338EA4B1C
:10424000600479B8806A122356E9F89031B3E49398
:10425000F9E8C399400479B280567A1512415FAEED
:104260000CAF0DEA4F7004791080458A828B83E48D
:10427000F0A312417EE50BF0750A007808121420B5
:104280007C127D00EA2403126D39121437901A2A29
:1042900012572F7008901A2A800C124404888289C1
:1042A000831242B370F4EEF0A3EFF01223687900AA
:1042B000025209125121EA4B8882898322C082C0AE
:1042C00083901A2A80048C828D83127A5BEC4D6075
:1042D000288C828D83A3A3E069600574FF6970E672
:1042E0008C828D83A3A3A3E06A7003A3E06B70D6D6
:1042F000EC2403FAE43DFB80047A007B00025FFEBD
:1043000074F7120FB2E9FD74FE6D70047C01800237
:104310007C00901A2A80096D70027C018882898352
:1043200012572F601F88828983A3A3A3E06A7003BA
:10433000A3E06B70E7ECA2E088828983A3A3E0503E
:10434000D6F9800279FE024B0874F6120FB2E9FF2B
:104350007E00901A2A802C88828983A3A3E06F7044
:104360001E88828983A312438C25E0FCE433FDEA96
:104370002CF582EB3DF583E508F0A3E509F00E8806
:1043800082898312572F70CFEEF9800CA3A3127E7F
:10439000FCEE2274021214377F020211C574F71268
:1043A0000FB2E9FE901A2A1244047C007D00800BB3
:1043B000E8FCE9FD88828983124404E849603E886C
:1043C000828983A3A3E06E70E788828983A3A3A375
:1043D000E06A7003A3E06B70D7EC4D88828983702C
:1043E0000812511D901A2A8003124AE8126564E8E7
:1043F000FAE9FB121C061223687901800279000297
:104400004B08F5831244082212440C22E0F8A3E082
:10441000F92274F5120FB2890A901A2A12511D7EE0
:10442000007F00801712446DE8F0A3E9125FF4F5F5
:1044300008A3E0F509121C06AA08AB09EA4B60289C
:104440008A828B83A3A3E0650A7010EE4F8A828B69
:104450008370D2124404901A2A80CDEAFEEBFF8AC0
:10446000828B8312511D80D4122368800F124471F5
:104470002212440C8E828F83221214377F03021182
:10448000C5C082C0837900901A2A800109E0FAA38E
:10449000E08A82F583E582458370F1025FFE74F65F
:1044A000120FB2E4F508F50978081214249031B31C
:1044B000E49375F013A4A9F01245BE12725B1214B6
:1044C00037E9FE74096E700312236202438874F6A2
:1044D000120FB274FE1214CF852182852283E4F07C
:1044E000A3F0A821A9228808890978081214247544
:1044F00008027509007808121424126ECC121437C1
:1045000002439374F5120FB274EB1214CF8521821B
:10451000852283E4F0A3F0901A2A80748E828F8320
:10452000A3A3E0C0E0740212174FD0E0125BE0A931
:1045300082AA8389088A09750A0078081214207CE7
:10454000127D00740612174F127220121437740273
:104550001214B7880889097808121424750813758D
:1045600009007808121424740412174F1256D275D9
:10457000F013A4F8AAF075F013E91245BA126ED43C
:104580001214378521828522831245C98E828F833A
:104590001241A3EE4F7085A821A9228808890978C5
:1045A00008121424750802750900780812142412E0
:1045B0006ECC1214377415024479A42AF9E8240247
:1045C000FCE439FD7A427B0022E02401F0A3E034D0
:1045D00000F02274F4120FB274EB1214CF7E007F3D
:1045E00000A821A9228808890978081214247508CE
:1045F000028E0978081214247C007D007A4212721F
:1046000067121437E9706C8E08805674021214B762
:10461000880A890B780A121424750A13750B00781E
:104620000A121424E50875F013A4F8AAF075F01323
:10463000E5091245BA127269121437E9701B740346
:1046400012174FAA82AB83740212174FE0F912239C
:1046500032E970050EEE70010F0508E508700205DD
:1046600009852182852283124404C3E50898E5095F
:10467000994098EEFAEFFB74150234CE74F6120FDF
:10468000B28C828D83A3A31248D5F0EA1264F63B64
:10469000F583E0C0E0124892D0E0F0EA241DF582F4
:1046A000E43B1244021248761248D0F0A3F0EA2408
:1046B0001FF582E43BF5831241A3EC1248693DF5F6
:1046C00083EEF0A3EFF012486F3BF5831248A0A3EE
:1046D000A3A3A3A3A3EEF0A3EF126151FE8C828DDE
:1046E000831248DF74035EFEC39403400302485CF8
:1046F000EE600874026E60030247818C828D83E055
:10470000540CFE740C6E70030247C0E0A2E4400D2E
:1047100088828983E08C828D83A31248F574086EA9
:1047200060030247C01248807401F08A828B83A321
:10473000A3A3A3A3125BA670148C828D83E0440C08
:104740001248E7A3A31248A0EEF0A3EFF08C828DED
:1047500083E0A2E4402B88821248AE1248C3500185
:1047600009F5821248AEA3A3A3A3A3A3F0A3EF125B
:1047700048EF8C828D83A3A3A3F0E82403F85001B3
:104780000988828983E0C0E0EC2411F582E43DF5DC
:1047900083D0E01248DF8C828D83E0A2E7507588D9
:1047A000828983E0FE8C828D831248F574FC5E70F2
:1047B0000C8C828D83A3E054036403701E02485C5A
:1047C000124880E4F0740C6E600302472B8882125A
:1047D00048B41248C350010902474D8C828D83A30F
:1047E000E05403603288828983E0C0E0EC12489A8A
:1047F0003DF583D0E01248F68C828D83E05403644B
:1048000002701488828983E0C0E0124888D0E012E8
:1048100048F68003A3E4F0EC12569E3D1271FBECC7
:104820002410FEE43DFFEA241DF582E43BF583E01D
:10483000F5088E828F83E0C3982508F508F0EA24F6
:1048400017F8E43BF98882F583E0C39508C0E012CD
:104850004876D0E0126151C39508500A124876E4B8
:10486000F0124892E4F00243982415F582E422EA1B
:10487000240DF582E422EC240DF582E43DF583223B
:10488000EC1258573DF58322EC2414F582E43DF5F3
:104890008322EC1241BD3DF583222413F582E422EC
:1048A000E0FEA3E0FF8C828D83A3A3A3A322124882
:1048B000B4A3A3228983E0F508A3E0FFE5088C8276
:1048C0008D8322A3A3A3A3F0A3EFF0E82402F82290
:1048D0001248D5A322E4F08C828D83A3A3A32212D5
:1048E00048FDA882A98322124179A3A3A3A322127F
:1048F00048FDA3E022A31248FD08A9832212615AB1
:10490000A32274F4120FB274F31214CF8A0A8B0B21
:10491000ECFEEDFF8C82F583E0540CF508E0A2E795
:104920005006E508D2E7F508E508D2E1F508125B84
:10493000A67006E508D2E4F508E0A2E55006E50811
:10494000D2E5F5087C087D007900AA21AB22121B74
:1049500064740212174FE508127201C0E07403126A
:10496000174FD0E0124F8FE50AF0A3E50BF0740566
:1049700012174F126A6D12174FE0707774081217F2
:104980004F124F1512614338126A88C0E074081242
:10499000174F124A16D0E0126A68C0E07408121766
:1049A0004F124A0CD0E0F0740812174F124A02E07E
:1049B000124F3D124FBE126557EE2411125B72C0AA
:1049C000E01249F8D0E0F0EE2414125B72C0E074FB
:1049D0000812174F124F152435F582E438F583D0AD
:1049E000E0124F62C0E0740812174F124F19D0E066
:1049F0001267C1740D0234CEE82432F582E439F531
:104A00008322124471A3A3A3A3A3A322124F2912AA
:104A10006C6738F58322124F292426F582E438F595
:104A2000832274F7120FB27E008A828B83A3A3A322
:104A3000A3A3A3A3A3A3E064046003024AE412585F
:104A40004FE06003024AE41256B13B12572D700347
:104A5000024AE488828983E054036003024AE4E85E
:104A600012585739F583E0FA8C828D83A3A3E0FBBB
:104A7000A3E0CB2411F582E43BF583E06A706588FE
:104A8000828983A3A3A3A3A3A3A3A3A3124AE8E0B9
:104A90006A7003A3E06B704C88828983A3A3124AD7
:104AA000F4E0FFA3E0CF2406125B726A7003A3E078
:104AB0006B703188828983A3A3E0F88C828D83A3F5
:104AC000A3E0F9A3E0F5838982A3A3E06860138CD7
:104AD000828D83A3A3A3E0F5838982E0540C640450
:104AE00070027E01EEF98020124AEC221251258CD0
:104AF000828D8322A3A3124AECA3A322740C121763
:104B00004FE0F9740D1214377F010211C574F612CB
:104B10000FB274FC1214CFEAFEEBFFECFAEDFB8C43
:104B200082F583A3E054036016901A2012572F6079
:104B3000597900EEFCEFFD12634E121126804B8571
:104B40002182852283EEF0A3EFF0740212174F1238
:104B50004F84AC21AD227A807B231225A88A088B52
:104B600009A808A909EA4960218A828B83A3A3A323
:104B7000A3A3A3A3A3A37406F07A0088828B831255
:104B80004F15126517E0F912250674040243957457
:104B9000F2120FB274F31214CFEAFEEBFF8A82F521
:104BA00083A3A3A3A3A3A3A3A3A3A3E0F50A901C99
:104BB000B6E0700579BA024ECD7508017509007529
:104BC0000C00750D007C087D007900AA21AB221233
:104BD0001B64740512174F7401124F97540460122E
:104BE000740212174FE0D2E6124F97540870037503
:104BF0000803E05410600674404508F508E05408C6
:104C00006022740212174FE044C0124F9754206084
:104C10000A740312174FE0D2E08008740312174F92
:104C2000E0D2E1F0EE2415125B72124EFD700374B7
:104C30000169700674084508F5088E828F83A3A366
:104C4000A3A3A3A3A3A3E070161226028521828545
:104C50002283126564740212174FE0D2E28030643E
:104C60000F7010740212174F124F9F74044508F50D
:104C700008807F8E828F83A3A3A3A3A3A3A3A3E013
:104C800064028E828F83700A127234E8F0A3E9F016
:104C90008060A3A3A3A3A3A3A3A3E06403700DACAC
:104CA00021AD22EEFAEFFB1223B680468E828F836F
:104CB000A3A3A3A3A3A3A3A3E064017035901AB494
:104CC000E06010740212174F124F9F750910750A99
:104CD000FF8018740212174FE0440C124F8F74FDBE
:104CE000F0A374FFF074044508F5088E828F8312D8
:104CF00033E1EE2415125B72A2E0503F74021217EA
:104D00004FE0540C701B8E828F8312511D122014A1
:104D1000E9700579BB024ECD740212174FE0D2E55F
:104D2000F0EE2415125B72A2E05010740212174FBD
:104D3000E0540C64047004E0D2E5F0EE2411125B40
:104D400072C0E0740412174FD0E0126A6F12174F4E
:104D5000E06003024EC6740812174F124F58E50860
:104D6000F0A3E509F0124EF3E0C0E0124EE9D0E006
:104D7000F0124EDAE0C0E0740812174F124F15120D
:104D8000489A38F583D0E0124FBE64017011901A32
:104D9000B4E0C0E0740812174F124F33D0E0F07443
:104DA0000812174F124F53124EE4FAE8241CF582F2
:104DB000E439F583EA124F8AEE2415FAE43FFB8AC0
:104DC00082F583127A5BE8125EAE39F583124F8466
:104DD000EE241C125B72C0E0124ED0D0E0125FF4E1
:104DE000124EFD70037401697013740812174F128C
:104DF000583FFAEE241D125B72F91222788E828FD0
:104E000083A3A3A3A3A3A3A3A3A3E0C0E074081256
:104E1000174F124A16D0E0F0740812174F124A0CBE
:104E2000E50AF0740812174F1256D22428F582E4CE
:104E300039F583E50CF0A3E50D124F6A124F3D12D0
:104E40005BEB126557EE124EE4C0E0E82433F582C6
:104E5000E439F583D0E0F0EE241B125B72C0E074FD
:104E60000812174F124F19D0E0F0EE241A125B729D
:104E7000C0E0740812174F124F152432F582E4383F
:104E8000F583D0E0124F62124F09121420126C6D9C
:104E9000127A5B740B12174F124F15242F127F37A3
:104EA000121437EE2415125B7254406012901A40AF
:104EB00012572F600AAA21AB2212634E121126AAA2
:104EC00021AB22122428740C12174FE0F90252046D
:104ED000E82420F582E439F58322EE2419F582E4F2
:104EE0003FF58322126C7CE022E82412F582E4393B
:104EF000F58322EE2418F582E43FF583225480F8EE
:104F0000A3E05401F974806822F508A3E0F509755F
:104F10000A00780822124F2922124F292434F582E0
:104F2000E438F58322A3A3A3A3124F2D22E0F8A314
:104F3000E0C822124F2912486938F58322FAA3E00B
:104F4000FBE8242AF582E439F583EAF0A3EB22A3F7
:104F5000A3A3A3124408EE221256D61256B639F570
:104F60008322F0EE2413125BF322F0EE240D125B89
:104F7000F322E0FC8A828B83E02CFCA3E03400FD6A
:104F80008A828B83ECF0A3EDF022F0A3E4F022F010
:104F900085218285228322F0EE2415125BF322E024
:104FA000D2E3F0124FA7228E828F8312440C852108
:104FB00082852283E8F0A3E9F022E8F0A3E91266F3
:104FC000AAE02274F7120FB28A828B83A3E06401F5
:104FD00070047E6380027E648A828B83E06008793D
:104FE00005124FF724F3FE901A5CE06007F9124FA8
:104FF000F724F2FE024AE41224D0E9F8EEC3982224
:1050000074F6120FB274FE1214CF852182852283AA
:10501000126564E9FEECFAEDFB90053012572F6043
:1050200032A821A9228808890978081214247D0150
:10503000740E12174FE0FCEEF9900530126538122D
:1050400011267402121437EA4B6004790080067945
:10505000B2800279B602439374F7120FB2E9FE9060
:105060001A1612572F601F740912174FE0F50878AF
:1050700008121428EEF9901A1612653812112674C7
:1050800001121437800279B6024B0874F7120FB27E
:105090008908ECFEEDFF79B5E508245E6020146018
:1050A0000624F86034803D9005321250E7603512D6
:1050B00072781211268E828F831265648024901A72
:1050C00018127A5BEC4D601CEEFCEFFD901A181282
:1050D0006538121126E9F9800B901A141250ED125E
:1050E0001CA87900024B08125121EA4B22127A5F68
:1050F000EEFAEFFB2274F7120FB2E9FE79B574AB4A
:105100006E700B901A1412511D121CA87900024BDC
:10511000088E828F83A3A3A3A3A3A3A3A3125121C9
:105120002212512522E0FAA3E0FB2274F1120FB201
:10513000EAFEEBFF8C0A8D0B750801901A64E06E95
:105140007003A3E06F700C1251F8AA0AAB0B121C8B
:10515000A8805E122608EE6A7002EF6B7009AA0A38
:10516000AB0B12260E804AAC0AAD0BEEFAEFFB1227
:10517000214CE9F508901CA5E07036122AB8E970B8
:1051800030E508702C901A34E06E7003A3E06F7065
:1051900020EE4F601C750C2C750D1A750E00780CE6
:1051A0001214207C087D00AA0AAB0B127224121480
:1051B00037A908027B5774F2120FB2EAFEEBFF8C9C
:1051C000088D09750A011251F8EEFAEFFB121CA2C4
:1051D000E964017011901A641244048508828509FB
:1051E000831271FD800EAC08AD09EEFAEFFB1221BF
:1051F00052E9F50AA90A80111225FC8A0C8B0DAC24
:105200000CAD0D22740D1214377F060211C574F611
:10521000120FB2EAFEEBFF7A0D7B00121C00EA4B84
:105220006062EE2424126F01F0EE2425126F01A3B8
:105230001252C6126F07A3A3126C9A1252A1F0EE7B
:105240001252871252B6E8F0A3E91252DD1252AEA2
:105250001271FDEE125290126D5DA3A3A3A3F0EEA6
:105260002433125B72C0E0125299D0E0126A8C12A1
:1052700052AEA3A3A3E8F0A3E91252D5C0E012589E
:105280004FD0E0F0024398242AF582E43FF58322D0
:10529000242EF582E43FF58322EA125CC83BF583B5
:1052A000221252A522E08A828B83A3A3A322126D2D
:1052B000BCA3A3A3A3221252BA2212440C8A828B4B
:1052C00083A3A3A3A322F01252CB22EE2426F582BD
:1052D000E43FF58322F0EE2432125BF322F0EE2459
:1052E0002C125BF32274F4120FB274FE1214CFEC82
:1052F000FEEDFFEC2416125B7264057010EC2406C0
:10530000FCE43FFD1223B0E97003025391AC21ADE0
:1053100022126FB612201A85218285228312572FFE
:10532000606B8E828F83E064017058E875F009A489
:10533000F8AAF075F009E9A42AF9748D28F8740721
:1053400039F9E8FAE9FB8882F58378081216F8EE55
:1053500012543312169C4027852182852283124FD6
:1053600053125B8012539678081216F89086E178F3
:10537000081215C48A828B8378081216E9800A798C
:10538000A28010EE240F1271F77900800679A180B7
:105390000279C80234CC124FB4EE126C882274F237
:1053A000120FB28A0C8B0DECFEEDFFEC125B80E469
:1053B000F0A3F09086CD78081216F8EC1254331250
:1053C00014FB6067EC240E125B79703478B3901A8A
:1053D0005BE07028901A8DE064017020EC241112BB
:1053E0005B72F91224B88B09A909EE1256B23F126A
:1053F0006562EA4960047800800278A18808802EFE
:10540000E060046402700A1223C2E9F508700780A4
:105410001DE064037010EEFCEFFDAA0CAB0D122032
:105420003EE9F50880087508A180037508A3A9085E
:10543000025209126C8878082274F0120FB274F5C7
:105440001214CFEAFEEBFFEA240AFCE43F8C82F55B
:1054500083127EF81256BC74031214C78A828B839F
:10546000126358E9700302552274011214C77403C1
:105470001214BF12201A740112174F12572F700303
:10548000025522E875F009A4F8AAF075F009E9A41C
:105490002AF9748928FC740739FDE508240E12677F
:1054A000A9E4F00412174F124404E5081256B2356D
:1054B000091271FB8C828D8312172CE508241212BD
:1054C00067A91217389086E178081216F88C828D39
:1054D00083780812159E8C828D83780C1216F890B2
:1054E00086E978081216F8780C7908120F43E50857
:1054F0004509450A450B702A740112174F1256D2FE
:1055000075F009A4F8AAF075F009E9A42AF97491D4
:1055100028F582740739F5837401F07A007B08124C
:1055200056DF8E828F83A3A3A3A3A3A3A3A3A3A3C6
:10553000E02406FCA3E03400FD8E828F83126358C2
:10554000126A7A603EEE240A1256A4124F5874680A
:10555000124F8AE812569E39F5837402F0901A466B
:1055600012172C8C828D831265511261433CF58396
:105570001217389086E178081216F8901A467808C3
:1055800012159E12571A705D901A141256CAA3A3D0
:10559000A3A3A3A3A3A3A3A3126179121CA2E970DE
:1055A00010126137901A141261497005126A7A60FC
:1055B000348E828F83A3A3A3A3A3A3A3A3A3A31225
:1055C00056CA12511D122044E960118E828F83A3A6
:1055D000A3A3A3A3A3125706E4F0A3F08E828F83A4
:1055E0001256ECE4F012571A60030256998E828F1D
:1055F00083A3A3A3A3A3A3127EF4901A5BE060038A
:1056000002568E901A8DE06401600302568E750A70
:105610003A750B00780A12142474021214B7880A1F
:10562000890B780A1214241274F3121437E9705B90
:10563000E508240E1267A97401125734C0E0E5088A
:1056400024111267A9D0E0F0E508240F1267A974AD
:105650003A124F8A901A4212172CE5082412126748
:10566000A91217389086E178081216F8901A427835
:105670000812159E9086E178081216F8901A427862
:10568000081214FB70081256DB80031256BC125726
:105690001A700612603A74A1F0740B026E2C240E7C
:1056A000F582E422F8E43FF9E8FCE9FD8882F5831D
:1056B00022EA1256B622240FF582E422E508125699
:1056C000B63509F583E4F0A3F022127A5F8E828F5B
:1056D00083221256D62212440CE8227A007B0290D2
:1056E00018EDE0F9121BAC228A828B83A3A3A3A33B
:1056F000A3A3A3A3A3A31256FA22124F2D240EF59F
:1057000082E438F58322A3A3A3A312570E22124FDB
:105710002D240FF582E438F583228E828F83A3A394
:10572000A3A3A3A3124F25240FF582E438F5831217
:1057300056D6492212573822F0852182852283E0ED
:105740002274F6120FB2EAFEEBFF7A237B00121CE2
:1057500000EE240AF508E43FF50985088212656227
:105760007C237D007900121B6485088285098312E1
:10577000572F7003025802EEFAEFFB1223CE125796
:105780001A60748E828F8312583564018E828F83E3
:10579000A3A3A3A3A3A3700712582B740E802112F6
:1057A000572F7010126A7A700B8E828F83A3A3E03A
:1057B000A2E05007125821740D800512582174057B
:1057C000126A8C5403640170071258097405800B27
:1057D000901A5CE0C0E0125809D0E0125844F583FA
:1057E0008882125B9F850882850983124F15126497
:1057F000F638F583E9800E8508828509831265DB1A
:10580000800312651EF00243988E828F83A3A3A3A8
:10581000A3A3A3A3A3A3A312581B22E012653DA335
:10582000228E828F83A3A3A3A3A3A3124F25126466
:10583000FC38F58322A3A3A3A3A3A3A3A3A3A3122A
:1058400056FAE02212584822126FCBF8A3E022EA5F
:105850001258573BF58322240CF582E42274F1128E
:105860000FB274E41214CF8A0C8B0D8C088D097A58
:10587000237B00121C008A0A8B0BAE0AAF0BEA4F87
:105880007003025B5A126502E5082415125B8B68EF
:105890007003A3E0698E828F8370047402800274A7
:1058A00001F0E508240DF8E43509F98882F583E074
:1058B000FAC3E49AFA95E0FB125B872AFAA3E03B6D
:1058C000FB8E828F83A3A3A3A31261608E828F833A
:1058D000A3A3F0EE2420F582E43FF583E4F0EE2468
:1058E00021F582E43FF583E4F0EEFAEFFB12248227
:1058F000850882850983125BA670098E828F83A337
:1059000074058006901A5C125B94F0EE2417F50A79
:10591000E43FF50B8E828F83125B9FE9850A8285B7
:105920000B83F0EE2416F8E43FF9E508240EFAE4C0
:105930003509FB88828983124F72E5082410FAE446
:105940003509FB850A82850B83E0FC88828983E028
:10595000F88A828B83E0C398C39CF8125BE0F0EE78
:10596000FCEFFDAA0CAB0D1223C8E9F50B8E828F5C
:1059700083E064027006126137125B64E50B60031A
:10598000025B51750C00750D00901CA5E064016070
:1059900005E06402703F125B766008EE2421125B22
:1059A0007970328E828F83A3A3A3126524125BAC1D
:1059B000EE2416125B72125BD5FAE439FB124161D8
:1059C000EA4B6011126D86121420125BBAAA0C12F7
:1059D0007224121437EEFAEFFB12248EE9F50B90C5
:1059E0001CA5E064016008E064026003025B44E916
:1059F0007003025B44E50C450D7003025B518003AC
:105A0000850E0B125B76600BEE2421125B7960032E
:105A1000025B4A850B0E850C08850D09750A007816
:105A200008121420125BBA8E828F83A3A3A3A31241
:105A30007F3D121437EE2420125B72600D125B7FE3
:105A40007468124F8AEE24208015EE2421125B72B6
:105A50006015125B7F7403F0A37401F0EE2421F54E
:105A600082E43FF583E4F0EEFAEFFB12248EE9F5D1
:105A70000B70907C137D00790074091214BF121B07
:105A800064741A12174F7401125BEB64687002A3FE
:105A9000E0704F8E828F83125706E0640560030228
:105AA0005A007C0879FF8E828F83A3A3A3A3E024EE
:105AB0002A12617C121BE2E97003025A007C087D05
:105AC0000079FF74011214BF121B6474011214C711
:105AD0007A007B0079AB1223AA741912174F74FC59
