:020000040000FA
:10080000021C2C0210C7FFFFFFFFFFFFFFFFFFFFCF
:10081000FFFFFFFFFFFFFFFFFFFFFFFFFFFFFFFFE8
:10082000FFFFFFFFFFFFFFFFFFFFFF0219E9FFFFD1
:10083000FFFFFF021197FFFFFFFFFFFFFFFFFFFF1B
:10084000FFFFFF02150CFFFFFFFFFFFFFFFFFFFF92
:10085000FFFFFF020F9FFFFFFFFFFFFFFFFFFFFFF5
:10086000FFFFFFFFFFFFFFFFFFFFFF021101FFFF81
:10087000FFFFFFFFFFFFFFFFFFFFFFFFFFFFFFFF88
:10088000FFFFFF021028FFFF13201320FFFFFFFFD1
:100890007856341201000000010000000000F8FF4B
:1008A00007FFFF0000050400000003000147726F0E
:1008B000757000FF040010FFFFFF001410270000F8
:1008C000FFFFFFFF0020FD000206FFFF1EF42200D5
:1008D0000000000000000000000000000000000018
:1008E000000000000000001E000104010C000203D3
:1008F0008787029987FFFFFFFFFFFFFFFFFFFFFFD3
:10090000FFFFFFFF020119000E04010000000000BC
:100910000001B3870E00E715D3190001040000772A
:1009200016000000E8030000FFFFC816018813004E
:1009300000E803000064006400B801A0BB0D00A043
:10094000BB0D00020202070401051E02051E020A79
:100950000A010108080103B80B02803E0102FEFFF4
:10096000E8030A050001FFFF020A011401E030312B
:10097000323334353637383941424344454600280E
:100980006E756C6C20706F696E7465722900303101
:100990003233343536373839616263646566003F17
:1009A0003F3F000000807F0000803F00000000F912
:1009B000021550B743BA510000204100E7DB2E007A
:1009C00000A040050301010F030003000300030022
:1009D0000300030003000300030005000A001400E5
:1009E00028004F009E0000009B34000000006F3381
:1009F00000000000FF000000FF00121C4B604612C8
:100A00001C3C603DE9687008F618F618F618F622E6
:100A1000748067F7120A2E090909748067F7221299
:100A20001C3C601D121C4B7005191919801A121AF2
:100A3000CB701F121ADFC37003E667331919194010
:100A4000071818182208080874FFF618F618F61880
:100A5000F622121ADF6017121CD9702192F0121CB4
:100A6000E27019501720F014080808090909E7F680
:100A70001819E7F61819E7F61819E7F622121CE21A
:100A800060E6E869701F0808E62480F608E436F698
:100A900018547FB47F0CE654806007F6E418F6180B
:100AA000F622181822E9C6CC08C6CD08C6CE08C65C
:100AB000CFC0E0E8C0E0EAC0E0EBC0E009E9F80937
:100AC000E7FA09E7FBE6F918E6F8C3EC98ED99EECA
:100AD0009AEBC2E7F5F0EFC2E795F0500E600CEB31
:100AE000CFFBEACEFAE9CDF9E8CCF8EAA2E7D2E703
:100AF000FAEB33FB13F5F0EEA2E7D2E7FEEF33FF9C
:100B0000C5F013A2E730E601B313C5F0C3C0E0C0DF
:100B1000F07F00C39BFB605E9418600F401D146063
:100B20001AD0E023F9D0E0F8020C008AF0E948601E
:100B300003D2F0E4AFF0FAF9F8803BEB30E40D8932
:100B4000F0EA6003D2F0E4AFF0F9CAF8EB30E30D5D
:100B500088F0EF6002D2F0AFF0E4CAC9F8EB5407B6
:100B60006014FBC3EA13FAE913F9E813F8EF135022
:100B700002D2E0FFDBEDD0E0C0E030E739C3E49F14
:100B8000FFF5F0EC98FC42F0ED99FD42F0EE9AFE94
:100B900042F0D0E0F9D0E0F8E5F0607AE923F9EE30
:100BA00020E742D8028067C3EF33FFEC33FCED331C
:100BB000FDEE33FE80EAEC28FCED39FDEE3AFED086
:100BC000E023F9D0E0F84002801BC3EE13FEED13E2
:100BD000FDEC13FCEF135002D2E0FF08B800067FD3
:100BE0007F74FF802EEF3350178CF020F0026010DE
:100BF0000CBC000C0DBD00080EBE000408E860DF50
:100C0000E933E813FFEE2313FE4F4D4C8008E954FF
:100C100080FFE4FEFDFCEE33EF33F47004FCFD7E58
:100C200080D0E0FBD0E0FAD0E0F8D0E0CFC618CE1C
:100C3000C618CDC618CCC6F922121C3C7004181870
:100C40001822121C4B700D74FFF61819F61819F6BD
:100C50001819F622E7548066F6121CE2700F121C77
:100C6000D970F014F608F608F608F680D1121CD9EF
:100C7000700CF608F608768008E6447F80EC121ABD
:100C8000E2700C121ACE60BFE65480F6E480BB120C
:100C90001ACE700519191980A5E869700C763F18ED
:100CA000768018F618F6E8F922E6CDC0E018ECC018
:100CB000E0E633CD33CDD313F6E719FCE71919334A
:100CC000CC33C3947F400ECD9D502408E65480F66B
:100CD000E418F6800FF4043D14501408E6447FF63F
:100CE000187680E418F618F6D0E0FCD0E0FD22CCAF
:100CF000D313CCFD18E4C6CBC0E018E4C6CAC0E0EC
:100D00000808ED08C633E613F618E433C675F00399
:100D1000C3CA97CA09CB97CB199C40047D08802E83
:100D2000BD0003020DE216B6FF050606081618C33D
:100D3000CA33CACB33CB33CA27CA09CB37CB193C0A
:100D4000C37D08803E187D0820E75CC633C6CA33E1
:100D5000CACB33CB33DDF1D5F0EB30E77BCA97CA92
:100D600009CB974ACB199C406F4B7025E620E021B8
:100D70008066187D08C3CA97CA09CB97CB199CD344
:100D8000C633C6CA33CACB33CB3350C9DDE7D5F03F
:100D9000E1D3E4C636C608C636C608C636C608C697
:100DA00036C61818188031C3CA97CA09CB97CB1911
:100DB0009CB34097C633C6CA33CACB33CB33DD347A
:100DC000D5F02EC6A2E0C640C8CA27CA09CB37193B
:100DD0004A70BECB3CB480B90808E63308E63360FD
:100DE0001F181818D0E0FAD0E0FBD0E0FCD0E0FDEE
:100DF00022187D08CA27CA09CB37CB193CD380807B
:100E000013F618E4B67F11F618B6FF0EF618C604EE
:100E100070D20808768080CAF618F618F680C500E9
:100E2000121C3C604F121C4B6012E7548066F61295
:100E30001ACB7011121CD9703B090909F4F618F687
:100E400018F618F622121ADF7015121CE2080808AC
:100E500060EAE6447FF618768018E4F618F6221267
:100E60001CE26016121CD97012E4F608F608F608A7
:100E7000E65480F609090918181822EAC0E0EBC008
:100E8000E0ECC0E0EDC0E0E687F0A4FBACF008E6E3
:100E900087F0A42CFCE435F0FA1809E687F0A42CBE
:100EA0004B60027401CA35F0FCE433FB09E687F0BD
:100EB000D2F7A42CCB35F0FC1908E687F0A42BCC94
:100EC00035F0FBE433FD0819E687F0D2E7A42C4A9D
:100ED000CB35F0CD3400FC09E687F0D2E7A42DCC69
:100EE00035F0FDE433FA0918E687F0D2F7A42CCDEB
:100EF00035F0CA3400FC08E687F0D2E7D2F7A42A1E
:100F0000CC35F07A7E20E70B0ACB33CBCD33CDCC7A
:100F100033CC33CB3350147004ED30E00ED2F1E417
:100F2000CD3DCDCC3CCC3B5005DA05C2F1EB547F36
:100F3000C63308E63392F0FBE73309E733C39A5030
:100F40002D2B70190C0D4C4D70151806E608C33387
:100F5000700D20F10AA2F013F6E418800B4024E48F
:100F6000F630F002768018F618F618F68024D33B97
:100F700014501074FFA2F013F6187680E418F618D7
:100F8000F6800FA2F013F618E63303F618ECF61805
:100F9000EDF6D0E0FDD0E0FCD0E0FBD0E0FA22C0DE
:100FA000E0C0D0E8C0E0E9C0E0EAC0E0EBC0E0ECBF
:100FB000C0E0EDC0E0EEC0E0EFC0E0C008C009C096
:100FC00082C083C0F0A2AFE433F509D2AF85A70891
:100FD000AFA1EF5508FE74105E6006121E7475A175
:100FE000EF74085E6008121E7A75A1F78024EFA2E4
:100FF000E092F0E508A2E082F05017906198E0F8E6
:101000009008ADE0C398A2D265D0335002E8F075E5
:10101000A1FEE509A2E092AFD0F0D083D082D00942
:10102000D008D0E0FF0210ADC0E0C0D0E8C0E0E9D9
:10103000C0E0EAC0E0EBC0E0ECC0E0EDC0E0EEC034
:10104000E0C082C083C0F0A2AFE433FED2AF9061B3
:10105000A4E0F8759B00E59158540860087591F775
:10106000121EBC8023E59158541060087591EF1250
:101070001EC28014E591A2E092F0E8A2E082F05056
:1010800007E0C2E0F0121FF49061A3E0F8E5E95830
:101090005404600E121FD675E9FB906193E0A2E63E
:1010A00040F2EEA2E092AFD0F0D083D082D0E0FE4A
:1010B000D0E0FDD0E0FCD0E0FBD0E0FAD0E0F9D009
:1010C000E0F8D0D0D0E032C0E0C0D0E8C0E0E9C065
:1010D000E0EAC0E0EBC0E0ECC0E0EDC0E0EEC0E074
:1010E000C082C083C0F0A2AFE433FED2AF9061A54E
:1010F000E0F8E5BF585404600675BFFB122000807D
:10110000A1C0E0C0D0E8C0E0E9C0E0EAC0E0EBC0C8
:10111000E0ECC0E0EDC0E0EEC0E0C008C009C00AED
:10112000C00BC082C083C0F0A2AFE433FED2AFE5F3
:1011300089A2E1503090046A7401F0E5895402906C
:10114000046BF0750819750900750A00750B0078B5
:101150000812197E7A107B00900469E0F91221DAF6
:101160007404121999758900C2C5EEA2E092AFD03D
:10117000F0D083D082D00BD00AD009D008D0E0FEC6
:10118000D0E0FDD0E0FCD0E0FBD0E0FAD0E0F9D038
:10119000E0F8D0D0D0E032C0E0C0D0E8C0E0E9C094
:1011A000E0EAC0E0EBC0E0ECC0E0EDC0E0EEC0E0A3
:1011B000C008C009C00AC00BC082C083C0F0A2AF83
:1011C000E433FED2AFE58BA2E0503290046A74049F
:1011D000F0E58BA2E0E43390046BF0750819750913
:1011E00000750A00750B00780812197E7A107B00D2
:1011F000900469E0F91221DA7404121999758B00D0
:10120000C2E802116A12125030F03912129580347D
:1012100012125020F01430E72B74FFFCFBFA747F9D
:101220008022E4FCFBFA7480801AB48008BC00F2CF
:10123000BB00EF800F50EBF9E4C39AFAE49BFBE4A8
:101240009CFCE499C6CC18C6CB18C6CA18C6F922AD
:10125000E4C9C608CAC608CBC6D3330308CCC63314
:1012600092F0C3947F402E94184019C9B90704CA5C
:10127000CBCC225025C309CA33CACB33CBCC33CC19
:1012800033D9F422F4600DC9CCC313CB13CBCA13EA
:10129000CAD9F6CC22E4FCFBFA2214FCFBFA22C3E6
:1012A000E498F8E499F91212E08026C3E49AFAE48B
:1012B0009BFBE920E7E91212E0E498F8E499F922AF
:1012C000C3E498F8E499F91212E0E498F8E499F983
:1012D000C3E49AFAE49BFB22EB20E7CFE920E7E0A6
:1012E000B90010BB0008E88AF084F8AAF022E4FBF9
:1012F000C8FA22EB70227B10C833C8C933C93350F7
:1013000007C39AC3DBF280069A50012ADBEAC8338E
:10131000F4C8C933F4C9FA2275F008E4C833C8C95F
:1013200033C933C99AC99B5004C92AC93BD5F0ECCB
:10133000FBC833F4C8E4C9FA22080808EAC0E0EBA5
:10134000C0E086F0E7A4FA180986F0E7A42AFA18A4
:101350000986F0E7A42AFA180986F0E7A42AFA1900
:1013600086F0E7A4FBE5F02AFA190886F0E7A42B3B
:10137000FBE5F03AFA190886F0E7A42BFBE5F03A12
:10138000FA18180986F0E7A4C5F02BFBE43AFA191D
:1013900008E7C5F0C6A426F6E5F03BFBE43AFA18E8
:1013A00086F0E7A4F6E5F00826F6E43B08F6E43A12
:1013B00008F6D0E0FBD0E0FA22080808E630E71192
:1013C000121AB71213D1080808C64480C618181894
:1013D00022181818E9799EC608CAC608CBC608CCD8
:1013E000C6C370207996CACBCC7019798ECBCC70DD
:1013F000137986CC700EF9802ACA33CACB33CBCC92
:1014000033CC331930E7F2CCCBCA3350147004EA32
:1014100030E00DE4CA3ACACB3BCBCC3CCC500209FD
:10142000C3E913C6CC182313C6CB18C6CA18C6F90D
:1014300022E4CFC0E0E4CEC0E0E4CDC0E0E4CCC024
:10144000E075F020E626F608E633F608E633F608FF
:10145000E633F6181818EC33FCED33FDEE33FEEFEF
:1014600033FFC3EC9709ED9709EE9709EF97191928
:1014700019400FFFEC97FC09ED97FD09EE97FE1957
:101480001906D5F0BFECF709EDF709EEF709EFF70C
:10149000191919D0E0FCD0E0FDD0E0FED0E0FF2229
:1014A0002521C582C0E0E52234FFC583C0E0E521E7
:1014B000C3958224F810AF08858322858221800895
:1014C000858322858221D2AFCEF0A3E520F0A378D8
:1014D00008E608F0A3DEFAEFF0A3E58124FAF8E6C7
:1014E00008F0A3E608F0A3E608F0A30808E608F071
:1014F000A3E608F0A315811581D0E0FED0E0F81531
:101500008115811581E8C0E0EEC0E022C0E0C0D0C6
:10151000E8C0E0E9C0E0EAC0E0EBC0E0ECC0E0ED2C
:10152000C0E0EEC0E0C082C083C0F0A2AFE433FEF2
:10153000D2AFC2C0E5D1A2E45003121E02EEA2E077
:1015400092AFD0F0D083D082D0E0FED0E0FDD0E0EA
:10155000FCD0E0FBD0E0FAD0E0F9D0E0F8D0D0D079
:10156000E032121CC4B900030215A1E49004017812
:101570006379168002F0A3D8FCD9FA7A637B1990BC
:101580000898786379028015E493A3AD82AE838ACC
:10159000828B83F0A3AA82AB838D828E83D8E9D914
:1015A000E77582CC7583E874051219607582F2754F
:1015B00083307400121960FF75F0108E238F24851C
:1015C0008228858327852182852283E0CEA3E0CFF0
:1015D000852882852783EBC9EAC8EDCBECCAC3E82E
:1015E00033C8E933C9EA33CAEB33CBC3EA9EF526E5
:1015F000EB9FF525B35004AB25AA26EC33CCED3395
:10160000CDD5F0DAAE23AF2422121C3C601C121C94
:101610004B6017121CE27007121CD97001D322C054
:10162000D0121CD97006D0D0B322C32233D0D050F0
:101630001430E0F6C3E7960809E7960809E796082C
:1016400009E796B32220E0D5E6970809E69708094E
:10165000E6970809E697B322121C3C601B121C4B4C
:101660006016121CE27007121CD9600CB322C0D0A5
:10167000121CD97005D0D022C32233D0D0501330E1
:10168000E0EBC3E7960809E7960809E7960809E73B
:10169000962220E0E4E6970809E6970809E697080D
:1016A00009E69722D083D082ECC0E0EDC0E0E4935D
:1016B000A3FCE493A3FDED4C600D12177CEC24FF1A
:1016C000FCED34FFFD80EFE493A3FCE493A3FDED78
:1016D0004C600D121845EC24FFFCED34FFFD80EF4B
:1016E000D0E0FDD0E0FCE493A3C0E0E493C0E022AE
:1016F000D083D082E9C0E0E493A3C386F0C5F0951F
:10170000F0F908E493A386F0C5F095F0700BE4932C
:10171000A3C3994005E9048002A3E475F002A4255F
:1017200082F582E5F03583F583D0E0F9E493A3C038
:10173000E0E493C0E022852283852182E0A3FEE0DD
:10174000A3F5207808E0A3F608DFFAE0A3FFE0A302
:10175000C0E0E0A3C0E0E0A3C0E0E0A3C0E0E0A3FD
:10176000C0E010AF08858221858322800885822110
:10177000858322D2AFD083D082021966C0E0C3E451
:101780009396087401939618400FE49366700808C6
:10179000740193661870007019A3A3C3E4939608AC
:1017A0007401939618A3A3400DD0E0D0E0D0E002DE
:1017B00016E0A3A3A3A3A3A3D0E02274048004741F
:1017C000028000CCC0E0EDC0E0E521C39CCCAD229E
:1017D00050011D10AF068C218D2280068C218D2298
:1017E000D2AF1218E2D0E0FDD0E0FC2274028000FB
:1017F000CCC0E0EDC0E0E521C39CCCAD2250011D82
:1018000010AF068C218D2280068C218D22D2AF1242
:1018100018C0D0E0FDD0E0FC22121C3C6025121C58
:101820004B6020121CE27003021CD9080808E7660E
:1018300070101819E766700A1819E766700418190D
:10184000E76622F422C0E0C0F088F0E493667008F6
:101850000874019366187000A8F0A3A3700BD0F071
:10186000D0E0D0E0D0E00216E0A3A3D0F0D0E02298
:10187000D083D082CCC0E0E493A360061219411457
:1018800070FAE493A36006121A4C1470FAD0E0FCCC
:10189000E493A3C0E0E493C0E022C008C3E096F55F
:1018A0000808A3E096420808A3E096420808A3E0CF
:1018B000964208A2D265D033E5087001D3D0082241
:1018C000CAC0E0E493A3C582CCC582C583CDC583DD
:1018D000F0A3C582CCC582C583CDC583DAE5D0E04F
:1018E000CA22CAC0E0E0A3C582CCC582C583CDC5EB
:1018F00083F0A3C582CCC582C583CDC583DAE6D08B
:10190000E0CA22C008C3E096F50808A3E0964208A2
:1019100008A3E096420808A3E09645087001D3D0DA
:1019200008227009080808226016181818C6C33360
:10193000C608C633C608C633C608C633C6D5E0EAED
:1019400022C0E0E493A3D39C5010E493A3C39C4033
:101950000AD0E0D0E0D0E002188DA3A3A3D0E0220B
:10196000C09FF59FE473D09F22D083D082C09FE4B4
:1019700093C0E0740193C0E0740293F59F22740455
:10198000800A74038006740280027401C0E0F404CB
:101990001219B4D0E0121C872200C0D0252110AF4C
:1019A00008F521500C05228008F52150020522D2AD
:1019B000AFD0D0222521F58210AF08F521400C15BB
:1019C000228008F52140021522D2AF85228322BB56
:1019D0000102E722C082C08389828A83BB0003E0C0
:1019E0008002E493D083D08222C0E0C0D0E8C0E07F
:1019F000A8A8D2AFC2C7E8A2E792AFD0E0F8D0D093
:101A0000D0E0326016080808C6C313C618C613C64D
:101A100018C613C618C613C6D5E0EA222521F8E475
:101A20003522F9222521FAE43522FB222521FCE486
:101A30003522FD22C3E0C696F608A3E0C696F60856
:101A4000A3E0C696F608A3E0C696F622C0E0E493AB
:101A5000A36C7009D0E0D0E0D0E002188DA3A3D031
:101A6000E022252110AF08F521400C15228008F551
:101A70002140021522D2AF22E76670100809E766FE
:101A8000700A0809E76670040809E76622C3E09651
:101A900008A3E09608A3E09608A3E096A2D265D03A
:101AA0003322E066701008A3E066700A08A3E066BF
:101AB000700408A3E06622181818E4C396F608E438
:101AC00096F608E496F608E496F622181818E60842
:101AD00046087009E626087005E633F42208221944
:101AE0001919E70947097009E727097005E733F471
:101AF000220922C3E096F008A3E096F008A3E0963E
:101B0000F008A3E096F022C3E697F60809E697F6F8
:101B10000809E697F60809E697F622C3E4939608C3
:101B2000740193960874029396087403939622E6C0
:101B300027F60809E637F60809E637F60809E63712
:101B4000F622700422600D18C6C333C608C633C619
:101B5000D5E0F41822E657F60809E657F60809E634
:101B600057F60809E657F622E056F008A3E056F0CB
:101B700008A3E056F008A3E056F022E647F608096D
:101B8000E647F60809E647F60809E647F622E026A2
:101B9000F608A3E036F608A3E036F608A3E036F62A
:101BA00022E026F008A3E036F008A3E036F008A310
:101BB000E036F022E046F008A3E046F008A3E04655
:101BC000F008A3E046F022E056F608A3E056F60837
:101BD000A3E056F608A3E056F62206E6700D0806C6
:101BE000E670080806E670030806E622600D08C6DF
:101BF000A2E713C618C613C6D5E0F322C6F4C6087A
:101C0000C6F4C608C6F4C608C6F4C622C3E79608DA
:101C100009E7960809E7960809E79622C3E09608BF
:101C2000A3E09608A3E09608A3E0962275D000757D
:101C3000813F75210175220400021562E6084608FD
:101C4000C3134608336002E633F422E7094709C3A9
:101C5000134709336002E733F422600C08C6C3134C
:101C6000C618C613C6D5E0F422E6F008A3E6F008CD
:101C7000A3E6F008A3E6F022E0F608A3E0F608A346
:101C8000E0F608A3E0F622CAC0E0E6F0A308DAFA1C
:101C9000D0E0FA22E0FAA3E0FBA3E0FCA3E0FD22FF
:101CA000EAF0A3EBF0A3ECF0A3EDF022E0F8A3E060
:101CB000F9A3E0FAA3E0FB22E8F0A3E9F0A3EAF03D
:101CC000A3EBF022E5C754F84401F5C779012225BA
:101CD00021F582E43522F58322E7271947194719B0
:101CE0004722E62618461846184622C2AF75D69FE8
:101CF00002000022121969A1FC0312196934FE03C3
:101D000012196926FF03121969B9FF03121969AB89
:101D1000F30512196933F40512196955F4051219FE
:101D2000690CE405121969D3E40512196904E60582
:101D3000121969BEF505121969CFF50512196969FD
:101D4000F60512196974F6051219698CF60512194F
:101D500069FD7F00121969E1FA051219696DF7052D
:101D60001219697DF70512196995F705121969129B
:101D7000F805121969BAF4051219693FF505121927
:101D800069A5F5051219699BF60512196922F7056F
:101D900012196931F705121969E1B6051219692599
:101DA000B705121969C3B80512196900BA051219E5
:101DB00069E6BB051219699AAF05121969C8B2051F
:101DC00012196903B30512196979B305121969B6B5
:101DD000B40512196963B50512196950B6051219CF
:101DE00069BAB60512196946FA0512196932BC05B5
:101DF000121969EABC0512196936BE051219690C77
:101E0000C00512196961C005121969ACC005121923
:101E10006917C10512196927C1051219693BC10566
:101E2000121969F5F90212196920FA0212196931B9
:101E3000FD021219690BFE021219692CFE02121919
:101E40006948FE0212196961FE0212196986EC05E1
:101E5000121969BBEC05121969F6EC0512196968CB
:101E6000ED0512196998ED05121969C5ED051219EC
:101E70006922EE0512196925EE0512196938EE0579
:101E800012196944EE0512196942DE0512196996A4
:101E9000DE05121969E6DE0512196954DF0512190B
:101EA0006995DF05121969EEDF05121969FDDF0575
:101EB00012196925E00512196916E105121969233D
:101EC000E10512196934E105121969B7F80512190B
:101ED0006907F90512196931F90512196987C105F0
:101EE000121969E8C205121969F6C20512196909C1
:101EF000C3051219691EC30512196933C3051219E6
:101F00006946C3051219690DC40512196983C40510
:101F100012196905C505121969DEC505121969EEA0
:101F2000C505121969FDC5051219691CF8051219B4
:101F30006941F8051219696AF80512196992F805DC
:101F400012196974E6051219699BE60512196912DE
:101F5000E70512196945D4051219695ED4051219ED
:101F6000697CD40512196990D405121969AED4059B
:101F7000121969B8D405121969C2D405121969D5A4
:101F8000D405121969C6D50512196937D605121973
:101F90006962D605121969B0D605121969FDD60510
:101FA00012196918D70512196922D7051219696D16
:101FB000D705121969FBF9051219694A740012193B
:101FC000697E7400121969A07400121969B974004D
:101FD000121969D374001219693E750012196971DA
:101FE0007500121969567B00121969E17C001219FB
:101FF00069607D00121969EE7E00121969097F007F
:102000001219697C7F00121969BBEA05121969CBA4
:10201000EA0512196903EB051219691CEB0512197F
:10202000698DEB05121969B2EB05121969DDEB0533
:1020300012196933EC0512196959EC05121969B8BE
:10204000FF011219692EC60512196935C605121944
:1020500069E8C7051219690CC8051219699AC805FB
:1020600012196979C905121969D8C9051219696D5A
:10207000CA05121969B8CA05121969D8EF051219EB
:1020800069EAEF05121969FFF00512196902F105F5
:102090001219692FF10512196965F1051219697B89
:1020A000F105121969BDF10512196903F20512193A
:1020B0006947F20512196951F20512196993A705CA
:1020C0001219699DA705121969DAA7051219693F46
:1020D000A8051219695CA80512196913A905121936
:1020E000691DA9051219696AA90512196998A90536
:1020F00012196982AA051219699FAB05121969EDB7
:10210000AB0512196932AC051219699DAC0512199B
:102110006910AD051219696BAD05121969A6AD05F7
:10212000121969E7AD05121969F9AD051219690BA4
:10213000AE051219692AAE0512196933AE051219D6
:1021400069E5AE0512196936AF0512196970AF0558
:102150001219699D7F001219694DEE05121969FB6C
:10216000DA0512196931DB0512196980DC051219CB
:1021700069D9DD0512196976A203121969F4A80359
:102180001219699CAF031219692EB20312196991D1
:10219000B4031219692FB50312196907B70312198D
:1021A0006940B9031219696DBC031219697BBC033C
:1021B00012196945BD03121969E6BD031219694D6B
:1021C000C303121969F7C303121969E8FF0312194F
:1021D00069D1CF05121969E3CF05121969D1D0056C
:1021E00012196902D1051219694FD105121969AF87
:1021F000D1051219691BD20512196938D4051219B3
:10220000696BF205121969EFF20512196945F305B8
:1022100012196984F30512196998F905121969BB35
:102220008701121969C787011219696C880112198F
:1022300069E888011219698489011219698D8A0176
:10224000121969208B01121969B28B011219693BAD
:102250008C011219697D8C011219697C8E01121989
:10226000695C9101121969639601121969959B01C4
:10227000121969849D0112196943A801121969454F
:10228000A901121969DDA9011219698EAA01121991
:102290006907AB01121969BEAC01121969B1AD0130
:1022A0001219691EB001121969A6B0011219690D3F
:1022B000B4011219695FB70112196934B801121912
:1022C0006945BD01121969D6BD0112196911BE0116
:1022D000121969FBC001121969E2C70112196905D7
:1022E000CB011219690CCB0512196921CC05121901
:1022F0006921CE0512196973CF051219699CCF05A2
:10230000121969E6FF041219690080051219699F04
:102310008005121969AD8105121969CE810512195E
:1023200069DF82051219699384051219693D8505D3
:10233000121969978B05121969EC8D05121969003C
:1023400080041219690B8004121969A381041219FF
:10235000696B8604121969CC86041219694A8804CB
:10236000121969478904121969378A0412196970A8
:102370008D04121969468F041219693591041219D6
:1023800069CF94041219693C9704121969429804A0
:102390001219692699041219699B99041219692264
:1023A0009A04121969719C04121969A49D041219E6
:1023B000698B9F04121969DA9F0412196937A00406
:1023C000121969B0A004121969DCA404121969E099
:1023D000A50412196940A70412196930A80412193A
:1023E00069BCA804121969F5A80412196913AA0492
:1023F000121969B6AA041219693EAB04121969EAE6
:10240000AD0412196911AF0412196961AF041219F0
:102410006975B0041219699DB004121969A0B0045D
:10242000121969AEB004121969D2B00412196942C6
:10243000B1041219697BB104121969A7B104121908
:1024400069BAB10412196934F905121969FA7F00E1
:10245000121969D9B104121969FCB1041219696021
:10246000B304121969A9B30412196954B4041219F6
:1024700069BDB404121969C0B40412196952B504D3
:10248000121969DBB5041219698CB6041219698F27
:10249000B6041219692DB704121969AABC041219DD
:1024A000696ABE041219699FBE041219695AC204EE
:1024B00012196988C3041219699FC4041219696B3F
:1024C000C5041219698BC6041219694DC804121982
:1024D00069EAC80412196904E1031219690EE203DA
:1024E000121969BBE203121969C5E3031219699E47
:1024F000E40312196984E6031219693AE703121911
:102500006908E80312196919EA031219691AEC0338
:102510001219690CED03121969E6EF0312196942E9
:10252000F10312196945F20312196924F40312190F
:102530006932F70312196953F903121969ECF903A7
:1025400012196910FB03121969E6C4031219694BC9
:10255000C503121969ACC5031219697FC7031219A3
:102560006923C8031219694CC80312196945CC03C1
:102570001219695CCC031219695FCD031219691C29
:10258000CF0312196927D003121969DCD00312197D
:10259000695CD1031219690DD203121969F9D303C9
:1025A000121969DBD40312196942D603121969534F
:1025B000D803121969DCDA03121969BCDC03121999
:1025C000697FDD03121969F7DD031219690EDE0355
:1025D0001219690FDF03121969F2DF031219696119
:1025E000E00312196913FC011219690AFE0112199C
:1025F00069C9FE011219692DFF01121969B0D705C9
:1026000012196906D805121969B2E004121969771E
:10261000D8051219699DD805121969B5D80512197E
:10262000697DD90512196992D905121969B5DA05BA
:10263000121969BEDA05121969C7DA05121969D0CB
:10264000DA05121969DADA05121969BCFA041219E5
:1026500069DFFF04121969E4FF0412196943E905EF
:10266000121969DEEA04121969EAEF04121969976E
:10267000FA05121969C3FA051219697DFF021219C8
:1026800069A7FF021219695AD6011219698DD6017C
:10269000121969F9D60112196975FC031219693109
:1026A000D80112196976D80112196998D80112193E
:1026B00069B1D801121969D7D801121969F9D8017D
:1026C00012196937D9011219697BD9011219699D4B
:1026D000D901121969FFD901121969C6DA01121953
:1026E000697DDB01121969EFDB01121969BADC019E
:1026F0001219690DDD0112196973DD01121969AD35
:10270000DD01121969FFDD011219696DDE0112196F
:1027100069D8DE01121969DBDE011219695CDF017B
:10272000121969F3DF0112196973E0011219699234
:10273000E001121969F6E10112196903E2011219A7
:10274000690FE3011219691CE30112196925E301FC
:10275000121969FDE40112196917E601121969904D
:10276000E60112196902E70112196924E701121939
:1027700069B8E7011219698CE90112196963ED0161
:1027800012196977ED0112196987ED011219699122
:10279000ED011219699AED01121969A3ED011219DF
:1027A00069ADED01121969DAED0112196903EE0143
:1027B0001219690EEE0112196932EE0112196956E9
:1027C000EE01121969C0EE0112196906EF01121922
:1027D0006923EF01121969A0EF01121969D7EF01FE
:1027E00012196916F00112196963F001121969E9E9
:1027F000F001121969B7F2011219693AF3011219BD
:10280000691EF40112196985F601121969DEF601D3
:1028100012196928F70112196983F801121969B8A8
:10282000F8011219690AF901121969BFF90112199F
:10283000696EFA01121969ABFA0112196940FB01BC
:10284000121969ACFB011219690080021219693270
:102850008002121969608002121969368202121907
:10286000691683021219696E8302121969A984021A
:10287000121969F584021219691E88021219691168
:102880008B02121969618C02121969F78C021219F4
:1028900069038D02121969358D02121969B88E0209
:1028A000121969699002121969FD900212196940A2
:1028B0009102121969899102121969DD91021219A6
:1028C00069529202121969C19202121969DE9202CA
:1028D0001219690E930212196943930212196913AE
:1028E0009402121969BC94021219694297021219D2
:1028F000696298021219694D9902121969CF9902F9
:10290000121969039E02121969409E0212196998F0
:102910009E02121969CB9E02121969359F02121983
:10292000696B9F02121969F69F021219694EA00283
:1029300012196925A102121969DEA1021219697919
:10294000A20212196981A5021219699DA602121923
:102950006940AA0212196934AB0212196937AB0235
:1029600012196966AB021219696CAD021219694538
:10297000AE0212196988AE02121969DEAF0212198D
:10298000691DB002121969A6B002121969DAB00203
:102990001219699FB102121969B7B3021219692895
:1029A000B40212196968B402121969F6B402121954
:1029B0006918B602121969DAB602121969E1B80289
:1029C000121969F9B8021219690DB902121969458B
:1029D000B90212196973B902121969F2BA0212190D
:1029E0006917BC0212196974BC0212196926BD026A
:1029F0001219694DBD0212196914BE02121969AC8F
:102A0000BE02121969D2C00212196907C102121955
:102A1000696AC10212196999C20212196941C30295
:102A200012196972C3021219698AC302121969194B
:102A3000C402121969CDC602121969A5C802121979
:102A400069C1C802121969DDC802121969ABC9024D
:102A50001219699ECD02121969533700121969853E
:102A60003700121969743B00121969C03B00121932
:102A700069063C00121969A83C00121969043D005E
:102A8000121969493D00121969903E00121969A492
:102A90003F00121969934300121969174400121973
:102AA00069244500121969804500121969704700B0
:102AB000121969E54700121969EF4700121969FCFC
:102AC00047001219692748001219690E49001219A6
:102AD00069B84900121969364A00121969564A0044
:102AE0001219697F4A00121969A14A001219690175
:102AF0004D00121969C74D001219690C4E001219C8
:102B000069894E001219693A4F001219696C4F0019
:102B1000121969B24F00121969EE4F001219693E7D
:102B20005000121969925000121969E850001219E8
:102B300069345100121969A151001219691C52001F
:102B4000121969E75300121969E754001219690C48
:102B500056001219694B59001219695E5C0012196E
:102B6000691B5D001219695F5D001219690F5F0032
:102B7000121969235F001219692D5F001219693754
:102B80005F00121969435F001219695F5F00121933
:102B9000690A6000121969496000121969536000DE
:102BA0001219695D6000121969CD60001219691867
:102BB00061001219692D62001219698962001219E7
:102BC000690A6300121969C96300121969D26400A5
:102BD000121969066600121969F466001219690C67
:102BE0006700121969676700121969856700121971
:102BF00069CD6700121969F467001219698F6800BE
:102C0000121969556900121969E769001219696199
:102C10006A001219697B6B00121969286C0012197D
:102C200069506D00121969A06D00121969046E00D7
:102C3000121969666E00121969946E00121969B84A
:102C40006E00121969ED6E001219691E6F001219DB
:102C500069516F00121969716F00121969D96F00FB
:102C6000121969CD70001219692871001219695181
:102C70007100121969D971001219695C7200121978
:102C8000698772001219696C73001219697E9C05BC
:102C9000121969B69C05121969D79C051219691990
:102CA0009D051219697B9D05121969859D051219EB
:102CB00069959D05121969D09D05121969B0A10584
:102CC0001219699DA30512196983A5051219691ABC
:102CD000A605121969BCA605121969E4CE021219DB
:102CE0006962CF02121969BECF0212196909D002B6
:102CF00012196924D0021219694FD0021219696C95
:102D0000D00212196978D0021219690FD202121971
:102D10006928D202121969ADD202121969C0D20211
:102D2000121969DFD20212196983D30212196904D8
:102D3000D502121969B7D6021219694DD7021219B4
:102D40006950D702121969C0D702121969DED70279
:102D500012196975D802121969BDD802121969C011
:102D6000D80212196986D902121969F3D902121907
:102D70006919DA02121969A4DA02121969C2DA02AF
:102D800012196908DB02121969BCDB021219690603
:102D9000DC0212196935DC0212196992DC0212197F
:102DA00069C7DC02121969F3DC0212196901DD023C
:102DB0001219694EDD02121969BEDD021219690786
:102DC000DE0212196953DE021219697FDE0212193E
:102DD000698ADE02121969A8DE0212196993DF02FC
:102DE0001219699DDF02121969D8DF02121969E808
:102DF000DF02121969F1DF0212196945E0021219A6
:102E00006959E00212196988E1021219699DE1020B
:102E10001219692BE20212196970E202121969FC97
:102E2000E20212196907E30212196949E402121950
:102E30006964E402121969B0E4021219691FE5021B
:102E400012196958E50212196972E502121969B47A
:102E5000E50212196984E80212196931E9021219AE
:102E6000699EE902121969DEEB02121969F6EB029A
:102E7000121969F9EB0212196905EC0212196919A4
:102E8000EC0212196921EC0212196954EC021219B0
:102E90006956ED02121969DDED021219694DEE0253
:102EA000121969CFEE0212196990EF02121969AF77
:102EB000EF0212196950F002121969ADF0021219ED
:102EC00069B0F00212196924F10212196973F20251
:102ED00012196979F30212196904F4021219691FAF
:102EE000F502121969E7F50212196918F6021219AA
:102EF000693BF60212196944F60212196973F60267
:102F000012196903F702121969B9F7021219692E29
:102F1000F802121969D5F8021219694AF902121950
:102F20006981F902121969BFF902121969BEDF0439
:102F30001219692CDF04121969E1DE04121969C93A
:102F4000DE04121969FCDB04121969B0DB041219E2
:102F5000696DDB04121969F1DA041219696EE20570
:102F600012196967E105121969BFDA04121969F6C5
:102F7000E90412196918E9041219698BD8041219A5
:102F800069C1D70412196939E8041219696FE60496
:102F900012196914D7041219690AD704121969F6AB
:102FA000D604121969B4D50412196943D40412194C
:102FB0006929D00412196932CB041219697CCA0438
:102FC00012196960A20312196956A20312196964E1
:102FD0009E03121969429D03121969F89C03121984
:102FE00069159B031219697095031219699B910366
:102FF0001219691D9103121969529003121969DCA3
:103000008F031219690C8F031219696E8E0312193E
:1030100069C28C03121969EC8B03121969428B0384
:1030200012196931E604121969AAE5041219695CDA
:10303000E504121969C9E40412196937E404121984
:10304000690FE404121969BBE3041219693D8B038B
:10305000121969318B03121969B385031219698139
:10306000850312196929E3041219691385031219DA
:1030700069648403121969AC8303121969628303BA
:103080001219699DE2041219695783031219699490
:10309000D7011219691381031219696F800312197C
:1030A000692980031219690080031219693E9C0581
:1030B000121969119C05121969839B051219694936
:1030C0009B05121969B9970512196911950512190D
:1030D00069F6910512196948910512196915E204FA
:1030E000121969C99005121969D18F051219694F12
:1030F000D80500000080FBE4738F000100351A87BB
:10310000000100331A35000400FC192500020000FC
:103110001A26000200021A27000200041A280001E1
:10312000000E1A290001000F1A84000400531786AC
:1031300000010071192A000100101A2B0001001172
:103140001A2C000100151A2D0008005F172E00012F
:1031500000161A2F000100171A30000100181A314A
:10316000000100191A3200010067173300010068DE
:1031700017340001001A1A360001006917380001DF
:10318000001B1A39000100141A83000200311A636F
:10319000000100751764000100121A650001001398
:1031A0001A6D0001007617710008005717660001BC
:1031B00000301A43000100211A44000200221A457F
:1031C000000100241A46000200251A470008006D7D
:1031D0001748000100271A4B000100281A040001BB
:1031E00000341AA1000100381A37000100371A888C
:1031F000000100361A3C0001006A173D0001001C66
:103200001A49000200291A6700010077174D0002D1
:10321000002B1A4E0001002D1A4F0002002E1A3EFC
:10322000000100201A510001006B17520001001E1E
:103230001A530001001F1A540001006C170000000F
:103240000000000001363601010001020100010307
:103250000100010401060605020000070100340810
:1032600001000F090401010D0100FF0E0800001705
:10327000020000190100FF1A0100011B0100FE1CE1
:103280000100081D0200001F0100012001000121B2
:103290000200002301000F24020000260100012784
:1032A000010008280200FF2A0100072B0102402C20
:1032B0000100002D0100012E0100012F0100FF304F
:1032C000010B1D310800003A0100083B01000F3CD2
:1032D0000100013D0100FF3E0400004204000046E1
:1032E0000400004A0400004E04000052040000568E
:1032F0000400005A040000000000002001B987000B
:103300000001002001BA87000002002001B58700FB
:103310000003002001B6870000040042017A870004
:103320000005004201CE860000060042019B860097
:103330000007003001B7870000004042019B860073
:1033400000FDFF2101B18701002000200582190145
:103350000021002005831903000000212303160328
:1033600000FDFF2101B1870600FDFF2101B18701AA
:10337000037103010301030103010301032203029B
:103380000301031003000300030003000300030014
:1033900003000342030003240306030003000304A5
:1033A000031203250323032503230304030403005B
:1033B0000300030003440300030003230300036529
:1033C000032100350381030003050300030003000C
:1033D000030003250323030302710230016002117D
:1033E0000270020102020202028002100261023A2D
:1033F0000041006302730272026202430200021380
:103400000238000002000204021202000200020060
:1034100002000204020402370037003C02440200AA
:10342000023900000200026502000235028102003A
:103430000205028202830200020101710101010101
:10344000011101010131010101010180011001613E
:10345000013B00140063017301720162014301002A
:1034600001130106013D01350004011201000100B4
:10347000010001000104010401330133013C014456
:1034800001320136000001000165010001350081B3
:103490000100010501820183010001030071003078
:1034A0000160001100700031022003500480001000
:1034B00000610000001400630073007200620043AA
:1034C00000000013000600000000000400120000CD
:1034D0000000000000000004000400370037003C3A
:1034E00002440000000000000000006500000035FC
:1034F000008100000005000000830000003600018C
:1035000000060000000F00000000000000000000A6
:1035100000000003FFFF00000403FFFF0000FFFFA7
:103520000FF4010005C4040320000100000B00009B
:1035300000000000000003010F0000000000000078
:10354000000000000000000000000000000000007B
:103550000000000000000000000000A022CA22A617
:10356000223422AC22D022AC22DC22B2223422AC81
:1035700022D022B822342200000000BE22342200D1
:1035800000000000000000C42234220000000000FF
:10359000000000000000000000000000000000002B
:1035A000000000000000000000000000000000001B
:1035B0000000000000000019000000F0810816194A
:1035C0000001002381C019190002002381C41919C8
:1035D00000030021811016190004002381C8191965
:1035E0000005002181CC191900060030811216193E
:1035F00000070021811316190008002181151619F2
:103600000009002181171619000A002381191600EC
:1036100000FE240100FE240200742402806E2403B4
:10362000007A24040080240480862405008C24066B
:103630000092243100A4243300AA243400B024FFD3
:10364000FF0000030003000400080010001F003EFC
:10365000007B00F600EC01D703AF075D0FB91E71C8
:103660003D000007ECFDFDFDECDCDCCCBCACAC9C13
:103670009C8C7C7C6C6C5C5C5C4C4C3C3C2C2C1CBA
:103680001C03EAF5E5D5D5C5B5A595958585757570
:10369000656555554545353525251515050ACE2A47
:1036A00002982A05A42A079E2A0C802A0D8C2AFF3C
:1036B000000000160F00000B150B020002220F3352
:1036C00000000E0F5A6967426565416C6C69616E56
:1036D00063653039D0D1D2D3D4D5D6D7D8D9DADBB7
:1036E000DCDDDEDF303016181920231A1C1E3000F6
:1036F000034D4C4651181A250502000119161816DB
:103700001618230300303017181921301B1D1F30E5
:10371000003C40423A3F3F392F47300C0E020B0429
:103720000B0A0708000F020402010101010902E867
:1037300003000000BE040A0E0001000300E80304B9
:103740000F09031E1E03100C04040828020C0508B0
:10375000150A0474F71214A0E9901848F09017FDA8
:10376000E4F0122078901860E4F0A3F0901849F08B
:10377000A3F0122C1E12207E901785E4F0A3F01205
:10378000262A0250B974F01214A074D3121A6212CD
:103790006B1554806066901848E0F91220F08A0892
:1037A0008B09AF09EA4F604C7C0080010CEC75F08E
:1037B00003A4F8A9F0749D28F582743639F583E4E2
:1037C00093F46029E493F88A828B83E06870DDECDF
:1037D00075F003A4F8749E28F582743639F583E4F5
:1037E00093C0E0740193F583D0821230F7AA08EFFA
:1037F000FB1220E41272476480023B5485218285CB
:103800002283A3E05420601F122B348A088B09AF57
:1038100009EA4F600A122A8CAA08EFFB1220E41270
:1038200072476420023B54852182852283E0A2E016
:103830005042901802E0640F702E900B8912725261
:10384000900B89C3E094E9A3E09403400A7A007BDB
:103850008090167712519B7900122A62E9600990D4
:1038600019FC121C94122A7A852182852283E06435
:1038700001023B3954207003023B3E7A207B0090CA
:103880001848E0F91221ECEA4B4C4D701A90185C84
:10389000121CACE8494A4B700E7508017509007599
:1038A0000A00750B00806D750C00750D00750E001B
:1038B000750F001221F88A088B098C0A8D0B90185D
:1038C0005C121CACE8494A4B603190185C780812D5
:1038D0001903400E750CFF750DFF750EFF750F7FF8
:1038E000801985080C85090D8C0E8D0F90185C7859
:1038F0000C121A347401780C121A03850C08850D09
:1039000009850E0A850F0BE5084509450A450B7028
:1039100003023A987C0079047A007B00122B0A8A11
:103920000C8B0DAE0CAF0D0239DC7402121CCF747F
:10393000FFF07403121CCF74FFF07404121CCF74D8
:10394000FF12520E1269CF7407121A2C126C85E9FD
:103950006401706A123B604480F8A3E0F974281295
:103960001CCFE8F0A3E9126F19E0C0E0742A121C22
:10397000CFD0E01251FB540860167428121CCFA35C
:10398000E04401123B6DC0E0742C121CCFD0E0F07B
:10399000126B586011E8240B124353F87416121C72
:1039A000CFE8F0A3E4F0901A761217BB7406121A4F
:1039B0002C740B121A2412277474041219998E8213
:1039C0008F83A3A3A3A3A3A3A3A3A37406123B6DF6
:1039D000F9122AEC7405121CCF126CDCEE4F700346
:1039E000023A987C007904EEFAEFFB122B0A740578
:1039F000121CCFEAF0A3EB124F25E0F50CA3E0F583
:103A00000DE4F50EF50F7808790C121C0C4023EE2E
:103A10002404F8E43FF985080C85090D8882F583B4
:103A2000C3E0950CF0A3E0950D12733CE84970A437
:103A3000800C8E828F83A3A3A3A3E4F0A3F08E82D5
:103A40008F83A3A3A3A3A3A3A3A3A3A3E064018E33
:103A5000828F83A3A3A3A3A3A37020E054046003D5
:103A600002392A8E828F83A3A3A3A3A3A3A3A3A314
:103A70007406F07AB7123C930239D4A3A3A3A3E04F
:103A8000600302392A8E828F83A3A3A3A3A3A3A3D7
:103A9000A3A37401F00239D4122ADA7C0079017AE6
:103AA000007B00122B0AEA4B60031251947C0079D0
:103AB000047A007B00122B0AEA4B701380448A823E
:103AC0008B83A3A3A3A3126CF4EE98EF99400B8A07
:103AD000828B83A3A3A3A3126CDC7C007904122B3A
:103AE0000A8B0BA90BEA4970D5C3E5089EE5099F2F
:103AF000500DC3EE9508FEEF9509FFEE4F700D12C5
:103B0000519490185C123B66A3F08024EE2EFEEFD9
:103B1000338E08F509E4F50AF50B780812197E7A58
:103B200020123D3C1219991221F890185C121CA029
:103B3000852182852283E06420FAA3E08016A3E039
:103B4000540460131263AC12306E790112451A12DC
:103B500072476404FB80047A007B00742D026B348E
:103B6000EE126B42E022E4F0A3F0A3F02212520026
:103B7000A3A3E022C082C08374EA121A627C167D7D
:103B8000007900AA21AB221220CC7408121CCF7439
:103B900002F09017F11265E8123BB47409121CCFC1
:103BA0001266007413121CCFE412627F12261E7478
:103BB000160254CAE8F0A3E9F09017FB126CC42275
:103BC00074F71214A074DA121A62EAFEEBFFEA4FDD
:103BD000602DAC21AD22122B527406121CCFE06076
:103BE0001E7417121CCFE0FD7401121CCFE0FCEE16
:103BF000FAEFFB7900122A38E9600479A48002798F
:103C00000074260250B674F71214A0EAFEEBFF8A85
:103C100082F583A3A3A3A3A3A3E0544060178A82E1
:103C20008B83126AF51253D960067AFF7BFF8015E9
:103C3000126AF180039017F11269CF74FE6A700363
:103C400074FF6B6041126AF1126B1B122BE8E98E54
:103C5000828F83600B1266DE127307E4F0A3800389
:103C60001272F6F07C687D2A8E828F83124A4FE9A9
:103C7000F5087015EE4F60097901EEFAEFFB122A94
:103C8000E6A9080250B97508CDAA08123C93E9606C
:103C9000E380EE8E828F831266E2240CF582E43894
:103CA000F583E0F9122A742274F61214A0E9FEEAF0
:103CB000FF7A0F7B001220DEEA4B601A8A828B8328
:103CC000740CF0EEA3A3F0EF8A828B83124E741271
:103CD00062DD7900802BEEF9122B108B09A909EA1D
:103CE00049601C8A828B83A3A3A3A3A3A3A3A3A33A
:103CF0007406124E7DE0F9122816EEF9122AEC79BC
:103D0000100260C874F41214A08A088B098C0A8D02
:103D10000B901802E0640F701EEA4B4C4D60189037
:103D200017FDE064086005E06404700B7808121960
:103D30007E123D3A121999023F9F7A017B0090183A
:103D400048E0F91221DA74042274F41214A074FC0D
:103D5000121A62EAFEEBFF8A82F583A3A3E0F9124E
:103D60002B108A088B09EA4B7003023E828E828FE9
:103D700083A3A882A983E0C0E0EA1262D3D0E01254
:103D80004CE364F160288E828F83A3E064CD601ED3
:103D90008E828F83A3E0641A60148E828F83A3E0E7
:103DA00064E9600A8E828F83A3E064E17033790056
:103DB000122AE6E9602BE5082404F50AE43509F542
:103DC0000B850882850983A3A3A3A3A3A3124DB9DE
:103DD000124CC112208A850A82850B83126B1B80CC
:103DE000708E828F83A3E0C0E07402121CCFD0E0FB
:103DF0001254D81255FB124769C0E07403121CCF4D
:103E0000D0E0F0E508126FC4124412E0AA21AB2200
:103E1000700512276E8003122BD07402121CCFE0A3
:103E200064E9702D850882850983124578750A0139
:103E3000780A12198A750AE9780A12198A124C95B9
:103E4000124736FCA3E0FD8A828B83124760121969
:103E500099850882850983A3A3A3A3A3A3A3A3A3EE
:103E6000E064027012850882850983A3A3A3A3A33B
:103E7000A3A3A3A37406F08E828F83A3A3E0F912F9
:103E80002AEC122ADA901A021243847404023F9C2C
:103E900074F41214A0EAFEEBFF7508008A82F58321
:103EA000A3A3A3A3A3E060387508081269C279FF31
:103EB0001228A6EA4B601075082C8E828F83A3A36C
:103EC000A3A3A3E0D2E0F08E828F83A3A3A3A3A336
:103ED000E0540364016003023F8B430811023F8BEF
:103EE000EA24181258C16036EA241A1258C1600335
:103EF000F47013126CA47003A3E0696003023F8B9B
:103F0000750822023F8BEA241B123F8F241A125895
:103F1000C1FAEE24191258C1F9122804806D8A8260
:103F20008B83A3A3A3A3A3A3A3A3A312436F700391
:103F30007508018E828F83126CA87003A3E06970EC
:103F400006E508D2E1F508E50860158E828F83A3A7
:103F5000A3E07006E508D2E58004E508D2E6F5089E
:103F60001253CC64017006E508D2E0F5088E828F0A
:103F700083A3A3E06015EE241D125BE0F9122BD69B
:103F8000E964016006E508C2E0F508A9088010F5BB
:103F900082E43FF58312735FEA2274091219997F54
:103FA0000402173674F01214A074D7121A62EAFED3
:103FB000EBFF8A82F583A3A3A3A3E0600E901A000F
:103FC000126B5F6006901A001243847403121A2C5D
:103FD0008E828F83A3A3A31264AB1269CD122B52DE
:103FE000E9700302413578017405121CCFE0C394D7
:103FF00002400278007407121CCFE0C39402400212
:104000007800740C121CCFE064F87003A3E0F47025
:1040100003024135740C121CCFE064F97003A3E075
:10402000F47003024135740C121CCFE064FA700383
:10403000A3E0F47003024135740C121CCFE064FB62
:104040007003A3E0F470030241357406121CCFE044
:10405000F99017EBE0696003024135E8A2E0400304
:104060000241357427121CCFE06003024135EE2473
:1040700013126CBA7422121CCF1264B5241C126C79
:10408000BA7410121CCF1266007409121CCFE060C3
:104090001D741A121CCFE0FD7404121CCFE0FC8EBC
:1040A000828F831269CD7901122A38E9703B74033B
:1040B000121A24122A86E9F50C7409121CCFE0703A
:1040C0002C9017E5E060267422596422601F744228
:1040D00059644270147420121CCF124369600E742C
:1040E00020121CCF12436260047ACF804AE9A2E614
:1040F000504D7420121CCF125BE624FD600F14603B
:104100000C24FD600824FD600424FE702874201235
:104110001CCF12435B700E7420121CCF12620CA3D2
:10412000E0640D601A7403121A24122C00E9640171
:10413000700D02434B7AD37B0012244A02434BEEAC
:10414000242DF582E43FF58312456F7003A3E069E7
:10415000701D750800780812198A780812198AEEFD
:10416000242F1258C1F9124375124760121999741D
:1041700009121CCFE070030242131243751269CF7B
:10418000122C4E8A0E8B0FEA4B70030242A4740469
:10419000121CCFE0F88E828F83A3A3E028F8A3E05F
:1041A0003400F9E8240D124353F88A828B83A3A3C9
:1041B000A3E068600EE88A828B83A3A3A3124E6DEE
:1041C000123B677904E9121CCF1258E0A3E02AF8E9
:1041D000A3E034008882F583A3AA82AB831220D2A5
:1041E0008A088B098C0A8D0B850E82850F83A3A309
:1041F000A3A37808121903400302434B90879178D8
:1042000008121B8E850E82850F83A3A3127365A3EC
:104210001256049017FDE064046008E0640960032E
:1042200002434BE50CA2E540030242DEEE242F12CE
:1042300058C9F0EE24301258C1C0E07401121CCFEE
:10424000D0E0F0EE24311258C1C0E07402121CCF4D
:10425000D0E0F07414121CCFE064017026740E12CA
:104260001CCF124CBC24131258C1687003A3E06920
:104270007011740C121CCF12436F70077414121C4F
:10428000CFE4F0EE2425F582E43FF5831217BB74EA
:1042900004121A2C7407121A2412277474041219A7
:1042A0009902434B901842E0640160030242137488
:1042B00020121CCF1243697009E50CA2E6500302DC
:1042C00042137410121CCFE0F47003A3E0F4607B7F
:1042D000EEFCEFFD7403121A24122A92806DA2E6FE
:1042E00050697420121CCF1266EE7016741A121CDC
:1042F000CFE0640270557403121A247900122BCA9D
:1043000080497420121CCF1243627014741A121C5C
:10431000CFE0640470357403121A24122BBE802B74
:104320007420121CCF12435B700C79007403121AB4
:1043300024122C0C80157420121CCF12620CE06425
:104340000C70087403121A24122C187429026B348E
:10435000E82406F582E439F583E022126AFBE06482
:104360000322126AFBE0640722125BEA640622124F
:1043700053DD640222EE242BF582E43F12735DEEDE
:104380001253B222E0F508A3E0AA08FBE4FCFD12F8
:104390002A7A2274F41214A0EAFEEBFF8C088D092D
:1043A000901767E0600F126CA47003A3E0697005BA
:1043B0001227F2805379001269C21228228A828B56
:1043C00083E5824583602CA3A3A3A3A3A3E0541891
:1043D0006021E508241C12440F1217BF12440B126F
:1043E00017BFEE2418124747125EA7126C7C1219F1
:1043F00099801579008E828F83A3A3A31266D412AD
:104400005EA71269CF1227F8023F9FE5082413F533
:1044100082E43509F5832274F71214A074F7121A96
:1044200062EAFEEBFF9017FDE06403600DE06401BB
:104430006008E0640960030245158A828B83A3E06B
:1044400060030244E37C007D007A027B001220843A
:10445000126D218A82126CBE9017EE12660079539B
:1044600012260C9017FDE0640960099017FB126991
:10447000CF122C48852182852283740112622490F8
:1044800017FD7404F07401121A24794A1230EC7486
:1044900001121A2C7AF37B1712221090167AE0641C
:1044A0000B70057406F08005790012451A9017EE1E
:1044B0001266DA7A037B001220849017F11266DA12
:1044C0007A047B001220849017E8E0A2E35004D223
:1044D000F08002C2F01262119019FC121C94122A90
:1044E0007A802FFC7D007A037B1012208490167A4C
:1044F000E0640B7003740AF090176BE4F0FA7B40F1
:104500001260018E828F83A3E0F912451A9017FD85
:10451000E4F0122ABC74090250B69017FB1269D35A
:1045200012278622C082C083901785126B5F701796
:104530009017FDE024FB6005146007800A90178B3C
:10454000801F90178D801AE849600712435064015C
:10455000700C8A828B83A3E0F912277A800E901860
:1045600077126B5F600612620D1230F7025D58120F
:104570006CC49017FBE06822126CC4E8FAE9FB22D5
:1045800074F51214A074D8121A628A088B098A82F0
:104590008B83A3A3A3A3A3A3A3A3E0C3940F50035C
:1045A0000247318A828B83A3A3A3126CDC74151299
:1045B0001A2C8A828B83A3A3A3A3A3A3A3A312472A
:1045C00036FAA3E0FB122AC87415121CCFE0702E35
:1045D000850882850983A3A3A3A3A3A3A3A3E0C300
:1045E000940B401A8E828F83A3A3A3A3A3A3A3A398
:1045F000E064027009EE240B1258C1F46003024714
:10460000317417121CCFE060076402600302473167
:104610009017FDE06402601CE06406601790178547
:10462000126B5F7003024731124350640160030252
:1046300047318025901785126B5F701D75080078D3
:104640000812198A780812198AEE24101247478E28
:10465000828F831247601219998E828F831273346E
:10466000124CEC126CC07402121CCF1264B5123BD7
:1046700061C0E07404121CCFD0E0124769F508A3B2
:10468000E0F509740F7808121C5A7405121CCFE566
:1046900008F07419121CCFE0C0E07406121CCFD0D1
:1046A000E0F0741B121CCFE0C0E07407121CCFD0E6
:1046B000E0F07416121CCFE0C0E07409121CCFD0D9
:1046C000E0F07417121CCFE0C0E07408121CCFD0C9
:1046D000E0F0EE24101258C1C0E0740A121CCFD0D2
:1046E000E0F0741A121CCFE0C0E0740B121CCFD0A3
:1046F000E0F07427121CCFE0C0E0740C121CCFD085
:10470000E0F0741C121CCFA982AA8389088A09755B
:104710000A0078081219827C087D007410121CCFE0
:10472000AA82AB831258B8121999AA21AB22122778
:10473000807428025214E0F98A828B83A3A3A3A376
:10474000A3A3A3A3A3E022F582E43FF583E0F98EBF
:10475000828F83A3A3A3A3A3A3A3A3A312735F2204
:104760001269D3122B88740222F0EE125EACE022A2
:1047700074F21214A074F8121A628A0A8B0B8C0C51
:104780008D0D890890875BAC21AD2274081218E268
:10479000C200AC0AAD0BAA21AB221269507002D242
:1047A000009018498013AC0AAD0BEE240BFAE43FDD
:1047B000FB126950701B1253A3125036601EA200E8
:1047C00040E48E828F83E0650C7004A3E0650D7079
:1047D000E58E828F83A3A3E0650870DAEEFAEFFB23
:1047E0007408024CF9C082C083901849025D55C01C
:1047F00082C083901849E4F0A3024A4B74F7121464
:10480000A090184912724D800FEA2414F582E41228
:104810006CD912216EEEFAEFFBEA4B70EC9018495E
:10482000E4F0A3F00250B974F21214A08A0C8B0DBC
:10483000EDFF890B8A828B83E08C828D83F0A3A8A5
:1048400082A9838A828B831248F0124E67E0C45497
:10485000F0FA88828983E04AF0EC2402F8E43FF918
:10486000850C828B83A3A31248F0124903E03333F3
:1048700054FC1248F7E033333354F81248F7A3E0FE
:10488000A2E0E4331313FA88828983E04AF0EC242F
:1048900003FE50010FE50C2407F508E4350DF5097A
:1048A000750A0078081219827C087D00EEFAEF1272
:1048B00058B7121999EE2408FE50010FE50C240F89
:1048C000F508E4350DF50978081219827C037D009E
:1048D000EEFAEF1258B7121999E50BC3940F400D79
:1048E000E50C2412F582E4350D125EBBF0024CFC9F
:1048F000A3E08882898322FA88828983E04A124968
:1049000003A322F0850C828B83A3A3A3A32274F2BA
:104910001214A0EBFF8C0C8D0D8A82F583E08C8243
:104920008D8312731EA3A882A983E0125D00124C2E
:10493000E2C4125CFAF0EA127328125D07124CE02E
:10494000A2E2E4338C828D83124CDF131313541FC5
:10495000125D00A3124CDFA2E7E4338C828D83A3A7
:10496000A3A3A3A3A3F0EA2403FE50010FF5088F2D
:1049700009750A0078081219827C087D00E50C246C
:10498000071258B3121999EE2408FE50010FF508CA
:104990008F0978081219827C037D00E50C240F1220
:1049A00058B31219998E828F83A3A3A3E0C0E0129B
:1049B0007344D0E0F0024CFC74F61214A0EAFEEB53
:1049C000FF8A82F583A3858208858309E0F912278F
:1049D0009E850882850983E064EB601E8E828F834A
:1049E000A3E064E160148E828F83A3E064F1600A27
:1049F0008E828F83A3E0641A70078E828F83A3E474
:104A0000F09019FC121C94122A7A75080178081289
:104A1000198A8E828F83A3E0F508780812198A79A3
:104A2000009017FB1266DA9017F11247601219997D
:104A3000122ADA0260C8C082C083E990185B700352
:104A4000E4800274018004EAF0A3EBF0025D5812E6
:104A500069D31226242274F61214A090185BE07019
:104A60001B7C0079017A007B00122B0AEA4B600C58
:104A70008A828B83126B5F6003122A6E0260C8C049
:104A800082C083124F16401079FF122B04E9F89070
:104A9000374DE493C3985004790180027900025D98
:104AA0005874F21214A08A0A8B0B8909C2008A82F8
:104AB0008B83A3A3A3A3A3A3A3A3E0F9122B108A20
:104AC0000C8B0DAE0CAF0D750801EA4F6003024B65
:104AD00082850A82850B831266D4850A82850B83C0
:104AE000A3A3A3A3A3A3A3124CC1122AF88A0C8BDD
:104AF0000DAE0CAF0DEA4F7003024C8E8A828B8391
:104B0000A3A3A3A3E4F0A3F0E50A240CFAE4350B75
:104B1000FB8A82F583E0C0E0124C95D0E0F0E50A14
:104B2000240D124CB5240D1265FA122BEE1253BB54
:104B3000126B1BE50A2411124CB524111265FAE51B
:104B40000A2413126CEBC0E01253ADD0E0F0D20097
:104B5000EE2406F8E43FF9124CA8124CE35404602A
:104B600003024BF4901A0EE0F50A750B00740778F7
:104B70000A121B428E828F83A3A3A3A3A3A3124C6A
:104B80009FF08E828F83A3A3A3A3A3A3E0F50AA320
:104B9000E0F50B7407780A121C5AE50A5407FCE585
:104BA0000960618E828F83A3A3A3A3A3A3A3A3A35E
:104BB000740212520E124FAB600B9017E91259415A
:104BC000A3A3126600EC7003024C65EE2406F8E421
:104BD0003FF9E8FAE9124CA8F0EC24FFF50AE434B6
:104BE000FFF50B7407780A121B428A828983124CE4
:104BF0009FF080718E828F83A3A3A3A3A3A3E0441D
:104C000080024B81EC700575080080598E828F837D
:104C1000A3A3A3A3A3A3E05420600C1220D8EA54BA
:104C20007F7900245F80198E828F83A3A3A3A3A31F
:104C3000A3E05410601A1220D8EA540F7900240A15
:104C40005001098E828F83A3A3A3A3F0A3E9800D53
:104C50008E828F83A3A3A3A37401F0A3E4124CEC70
:104C60007404124F2CA20050288E828F83A3A3A31A
:104C7000A31269D9F9EEFAEFFB122AFEE9601212CB
:104C80006B586003124CCEEEFAEFFB12216E7508E2
:104C900000A9088067EE240CF582E43FF58322E04A
:104CA000450AF0A3E0450B228882F583E0547FF0AB
:104CB000A3E054FC22F582E4350BF583126CC4EEBC
:104CC00022A3E0F9850A82850B831269D322124C54
:104CD000D512512B22EE240FF582E43FF58322A357
:104CE000A3A3A3124CE722126D07E022124CF0227C
:104CF000125204A3A3A32274031219997F06021768
:104D00003674F41214A074F7121A627E00122B107B
:104D1000EA4B7003024DB48A828B83A3A3A3A3A39F
:104D2000A3A3A3A3E064066003024DB48A828B832D
:104D3000A3A3A3A3A3A3A3E0FF8A828B831272E69B
:104D4000E0C0E07408121CCFD0E01250DC1265ED18
:104D5000126600122B22EF540860578521828522AB
:104D6000831266DA7A007B00122AF2EA4B70431251
:104D7000734F7C007D007A007B0080228E828F83BF
:104D8000125BE6F47003A3E0F460279017FB124D6A
:104D9000B91250BE601C7C007D00EEFAEFFB122AB7
:104DA000F28A0A8B0BAE0AAF0BEE4F70CF7900126E
:104DB000263C7E01EEF9023F9A124DBD22E0FCA393
:104DC000E0FD8E828F8322C082C0838A828B83E53E
:104DD000824583700990186080068A828B83A3A322
:104DE000124FDF60208A828B83A3A3A3A3A3A3A374
:104DF000E0540860E5EC4D6010124FE57003A3E04D
:104E00006D70D780047A007B00025D5874F2121432
:104E1000A08A088B09890AECFEEDFF7A147B001248
:104E20002168EA4B60378A828B83A3A3A3A3A3A341
:104E3000A3A3A3E4124E7DE50A1250C8EEF0A3EF3F
:104E4000124E6D1250E3124E748A828B8312736776
:104E5000124E60126A56A3124E67F0A3F0024CFC89
:104E6000EA240FF582E422127322A3A3221250CE69
:104E7000E4F0A322A3F01272DF126A5622124E81CE
:104E8000221250D2A3A3A3A32274F51214A0EAFE07
:104E9000EBFF890A8C088D09EA4F6075740169700F
:104EA000127901122B04E9F890374FE493C398501C
:104EB00015800A7404697009124F1650097911801F
:104EC00052740269704B8E828F83A3A3A3A3A3A302
:104ED000A3A3A3E50A124F251255FB126BE0A3E42E
:104EE000F0A3F0901860126B5F60188003126CC022
:104EF00088828983A3A3124FDF88828983A3A3704A
:104F0000EC8003901860EEF0A3EF124F2C79008034
:104F10000279C10252177904122B04E9F890374E36
:104F2000E493C39822126BE4A3A3A322F07A207B1C
:104F300000901848E0F912211422C082C083E9F8D9
:104F40007900901860801D8A828B83A3A3A3A3A3FA
:104F5000A3A3A3A3E068600574FF687001098A82B7
:104F60008B83A3A3124FDF70DE025D5874F7121417
:104F7000A0EA4B700590186080068A828B83A3A3F9
:104F8000124FDF601F8A828B83A3A3A3A3A3A3A3D3
:104F9000A3A3E06970E4EC600F8A828B83124FABAD
:104FA00070D880047A007B000250B91272FFE0547E
:104FB0000422C082C08390186080068A828B83A3FB
:104FC000A3124FDF60128A828B83A3A3A3A3A3A3A0
:104FD000A3A3E06970E580047A007B00025D5812AB
:104FE00069D3EA4B228A828B83125BEA6C2274F2C9
:104FF0001214A08A0A8B0B8C0C8D0D750800750994
:1050000000EA4B602A90186080068E828F83A3A3EB
:10501000125036601AAC0CAD0DEEFAEFFB850A8229
:10502000850B831230F7E9640170DF8E088F09AABF
:1050300008AB09024CFCE0FEA3E0FFEE4F2274F740
:105040001214A0901860126CC07C007D00800DE8E6
:10505000FCE9FD88828983A3A3126CC0E849603013
:10506000EA687002EB6970E79018601269CFE86A2D
:105070007002E96B88828983A3A37008126CC090C8
:1050800018608009126CC08C828D83A3A312660005
:10509000802774F71214A0EAFEEBFFEA4F601512A6
:1050A0002B1C125117126B586003124CCEEEFAEF04
:1050B000FB12216E80031219997F010217361269C3
:1050C000D3122630E9641A221250CEA3A322125022
:1050D000D222F08A828B83A3A3A3A322127322126B
:1050E0005BEA22124E81A32274F61214A09018607B
:1050F000126CDC8014126CF9125117124CCEEEFABD
:10510000EFFB12216EAE08AF09EE4F70E890186009
:10511000E4F0A3F00260C88E828F831272D3F5830D
:1051200012512B8E828F8312512B22E0FAA3E0FBC7
:1051300012216E22C082C083EAFCEBFDEA4D6017AB
:10514000EA24FBF582EB34FF126B5D700712518984
:10515000E0F460071220E47905802B901848E0C045
:10516000E0125189D0E0F0903751E493F97A627BF4
:105170001812210EE96401700B7A007B20125198FD
:10518000790080027904025D58EA24FFF582EB344D
:10519000FFF583227A207B00901848E0F912211451
:1051A0002274F41214A0A2AFE433F508C2AF901831
:1051B000621250366038EE24FBF582EF34FF126B3A
:1051C0005D7A007B20901848600512519B8005E0B5
:1051D000F912211AE4F50AF50B780A121986EEFC89
:1051E000EFFD7A627B181221087402121999E50802
:1051F000A2E092AFEEFAEFFB023F9F125200E022D4
:105200001252042212520EA3A3A3A3A3A322F08E30
:10521000828F83221219997F0302173674F21214B7
:10522000A074FA121A62EAFEEBFF7508FE7509FF18
:10523000122AE0E96005791102539E1258BE603CC3
:10524000901A28E0C43354E0F8E0333354FC48C0EB
:10525000E0EE1262CD3FF583D0E0126D1BFAA3E0C1
:10526000FB79FF1228A6EA4B60127508FFEE240FA7
:105270001258C14404F01258BED2E0F08E828F83DF
:105280001253D76006EE2412126D33EE2413125817
:10529000C1700D903744E493C0E01253ADD0E0F0FC
:1052A0008E828F83E0A2E7500454038019EE241409
:1052B0001258C170129017DAE0C0E01253A3D0E088
:1052C000F09017DAE004F0EE24111258C164017076
:1052D00016901A12E0600D9017E5E0700A8E828F2A
:1052E00083E07003126D308E828F83E0640170134F
:1052F000EE240B125BE064027009EE240F1258C119
:105300004440F0AC21AD22EEFAEFFB122B4C8A0A9E
:105310008B0B74FE6508700374FFF47003126CF954
:10532000EA4B60768E828F83E0C0E07401121CCF5E
:10533000D0E0F07404121CCFEEF0A3EFF0EE241EC8
:10534000126CBA7402121CCF1266007401121A1C7D
:10535000880C890D780C121986EE24201253C01285
:10536000198A1253BB1217BFEE240E1253C0121922
:105370008A9017EE1217BF7408121CCFE0F9AC0820
:10538000AD09122B467408121999E9FE74106E705B
:105390000BAA0AAB0B12216E80027E10EEF9740686
:1053A000024CF9EE2414F582E43FF58322EE125309
:1053B000B2222413F582E43FF58322EE124CD6226A
:1053C000F582E43FF583E0F50C780C228E828F8322
:1053D000A3A3A3A3A3A3A3A3A31253DD22E0FAA331
:1053E000E0FB122BE8E922C082C08374D7121A6254
:1053F0009082F37403121A2C74261218E28A828B9C
:1054000083A3A3A3A3126CC0740E121CCF126B65EE
:10541000126CC0740C121CCF1254E0240D1254D024
:10542000C0E0741A121CCFD0E0F0126A5C126CBE9D
:105430007420121CCF1254E024151254D0C0E07412
:1054400008121CCFD0E0F0EA241CF582E43B126C79
:10545000BE7412121CCF1254E024111254D0C0E0BA
:105460007409121CCFD0E0F0EA24121254D0C0E02C
:105470007407121CCFD0E0F0EA241EF582E43B1240
:105480006CBE7424121CCF1254E024201254D0C0DD
:10549000E07426121CCFD0E01254D874FFF07401CF
:1054A000121CCF74FFF07402121CCF74FFF0901A1C
:1054B000761217BB7404121A2C7407121A241227BE
:1054C00074740412199979007429121999025D589B
:1054D000F582E43BF583E022F08521828522832258
:1054E000E8F0A3E9F0EA2274F41214A074EC121AA2
:1054F000628A0A8B0B8C088D09E9FF7E107A217B6A
:1055000000122168852182852283EAF0A3EB126BC9
:105510006FE84970030255F47C217D0079008521F4
:1055200082852283E0FA1220CC9017FB1269CF8586
:1055300021828522831266DE2409F582E438F58310
:10554000126B1B7420121CCF126CC07411121CCF72
:10555000E8125C4F126B2138F5837402125C521210
:1055600072ED7402125C3C1255FB125C521272CA4C
:10557000EFF07422121CCF125BFDF9A3E0C9126F89
:10558000C439F583E8125912A3E0C9241FF582E457
:10559000391256027423121CCF1269CF7406121CE2
:1055A000CF126B1B7408121CCFE8F07426121CCFAC
:1055B000126AF5C082C083740C121CCFAC82AD831A
:1055C000D083D08274051218E27425121CCFE0C07B
:1055D000E07413121CCFD0E0F07900AA21AB2212A4
:1055E0002AE6E9640170047E008009852182852213
:1055F00083124CD1EEF97414023F9CE508F0A3E548
:105600000922F583E50AF0A3E50BF02274F01214E9
:10561000A074FF121A62EAFEEBFF8C088D098A82E1
:10562000F583A37408F0EA24161258C160088A8230
:105630008B83A37410F0EA24171258C160098A8280
:105640008B83A3E02408F0EA1258BF60088A828B9B
:1056500083A3E004F08A828B83A3A3A3A3A3A3E084
:1056600060198A828B83A3A3A3A3A3A3A3E0C3335C
:105670002402F88A828B83A3E028F0EA24111258CE
:10568000C96004740E8001E4F0901A20E064017097
:10569000168A828B83E06401600D90176BE06007CF
:1056A0001258A9740180041258A9E41259128A826E
:1056B0008B83A3E0F8EA123B6128298C828D83F06A
:1056C000EA24111258C16005125EEA29F0850882A9
:1056D000850983E0C394754009750C00750D0002BF
:1056E00058A0E0FA7B001221688A0C8B0DEA4B70FF
:1056F000030258A08E828F83E0FA9017EB12590BA9
:1057000074027808121B42EA4508FAAB09EE24122B
:1057100012590574067808121B42A808EA48FCEBE7
:10572000FD1258BE6004780180027800EE2416FA5B
:10573000E43FFBE4C8F9ED49FDEE24111258C1F530
:1057400008880974097808121B42ED4509FD8A8210
:105750008B8312590B740B7808121B42ED4509FD1F
:10576000EE2417125905740C7808121B42ED4509F6
:10577000FD8E828F83A3A3A3A3A3A312590B740A44
:105780007808121B42ED4509FDEE242312590574D9
:105790000D7808121B42ED4509F9EC850C82850D48
:1057A00083F0E9A3F0EE24021258E8125927F0EE34
:1057B00024041258E8A3A3125927A3A3F0EE24133C
:1057C0001258F8F0EE24141258F8A3F0750B088A5A
:1057D000828B83E06015126BD11266DAE50C240827
:1057E000FAE4350DFB122210750B10EE2417125837
:1057F000C1601912675D1266DAA80BE50C28FAE49D
:10580000350DFB1222107408250BF50B8E828F8349
:10581000A3A3A3A3A3A3E0604EEE2407F50EE43FE9
:10582000F50F850E82F583E0C0E01258D7D0E01264
:105830005917E0C0E0081258D9D0E0125917A31246
:105840006B4B121982850E82850F83E0125BB1A823
:105850000BE50C281258B3121999850E82850F8317
:10586000E0C333250BF50B1258BE6008C0E0125898
:10587000D7D0E0F0125EA7126B4B121982123B6078
:10588000FC7D007403121CCF1258E0E0F8E50C28F0
:10589000F8E4350DF9E82AFAE4391258B7121999E3
:1058A000AA0CAB0D7401026B34EA2423F582E43FA9
:1058B000F58322FAE4350DFB1220C0740322EE2496
:1058C00015F582E43FF583E022F582E43FF583E0BD
:1058D00085218285228322A80BE50C28125BC42235
:1058E000E0FA8E828F83A322F8E43FF98882F58361
:1058F000E0850C82850D8322F582E43FF583125901
:1059000031A3A3A322F582E43FF583E0F5087509EE
:105910000022127310F922F0050B8E828F83A3A34D
:10592000A3A3A3A3A3A322A3A3126D07A312593178
:1059300022E0850C82850D83A3A3A3227403023F7A
:105940009C126CC48E828F83A3A32274F01214A0C5
:1059500074FD121A62126B157402121CCFE9F08CDE
:105960000C8D0D750B017C267D007900AA0CAB0D0A
:105970001220CC7402121CCFE0C394085003025BC7
:105980003A1258F0F0AC0CAD0D85218285228312BD
:105990005BE6FA85218285228312620C125EE3E9BE
:1059A0006003750B00852182852283126AF5125CE3
:1059B00007E0F9EA850C82850D83A3A3A3A3A3A323
:1059C000A3A3A3F0A3E9125C3CA3A3125C07A3A3C7
:1059D000E0F9E50C126B74EA125C4F1266CAC0E083
:1059E000E50C2411127348D0E0125C522407F582B2
:1059F000E438F583E0C0E0127344D0E0126B087421
:105A000008125C33A3E06026852182852283E0248E
:105A100008F8A3E03400F9E50C2413F582E4350D11
:105A20001265FE850C82850D83A3E02408F0850CA9
:105A300082850D83A3A3A3A3A3A3A3A3E0602A85C8
:105A40000C82850D83A385820E85830F125BF4F88B
:105A5000A3E03400F9E50C1262CD350D1265FE8528
:105A60000E82850F83E02408F0125BB8E4F0125B2D
:105A7000CCE4F0A3126B08A3A3A3A3E06011125C13
:105A800018850C82850D83A3A3A3A3A3125C44E510
:105A90000C125BD9E07003025B26125C18FA125BF1
:105AA000B8EA125C44F8852182852283E028FBA3B2
:105AB000E034008B82F583E0F8E50C241A12734879
:105AC000E8125C44E8C39AE50C5056125BD4F89097
:105AD0003747E493C39850047E0C8006E50C125BB4
:105AE000D4FE850C82850D83125BF3F508A3E034A8
:105AF00000F509750A007808121982EE125BB17A76
:105B0000FF7B0C1258B8121999125BCC74FFF0A3EA
:105B1000740CF0EEC333F8850E82850F83E0288085
:105B200004125BD9E4F0850C82850D83A3E0F8852F
:105B30000C82850D83E0C398500479008070125B5D
:105B4000F3FAA3E03400FBE50C126D2A12734B123A
:105B50006B1B850C82850D83E0C398C0E0E50C24A7
:105B600017127348D0E0125C33E06040E50C241754
:105B7000FEE4350DFF8E82F583E024F2F0E50C247F
:105B80001DF8E4350DF98882F583E0240EFAA3E0D0
:105B90003400FB88828983126B1B9017E6E0F912B0
:105BA0002A3EE9F88E828F83E0C398F0A90B026B3E
:105BB0003225E0FCE433FD22E50C125BBE22241901
:105BC000125BC422F582E4350DF58322E50C241B1B
:105BD000125BC422125BBEE022126B02125BC72270
:105BE000F582E43FF583125BEA22126CC9F58388E3
:105BF00082E022A3125BF822125BFD2822E0F885E6
:105C00002182852283E022A3A3E0FA8521828522D6
:105C100083126AFBA3A3A322850C82850D83A3852F
:105C2000820E85830F125BF8FAA3E034008A82F5B6
:105C300083E022126B0CA3A3A3A3A322125C57F54B
:105C400083888222F0850E82850F83E004F022F0A3
:105C5000A3E9125C57C822127314F8A3E02274F46B
:105C60001214A08A088B09EA125D07A3A3F0EA13B5
:105C700013543F125CFAA3F0EAC41313125D071227
:105C80005D117409780A121C5A125CF1A3A3A3A334
:105C9000A3A3F0EB125CF3125D10740A780A121CD5
:105CA0005AE50A5401C0E0EC126B023DF583D0E0E6
:105CB000125D15740B780A121C5A125CF1125D0EFB
:105CC000740C780A121C5A125CF1A3125D0E740D4A
:105CD000780A121C5AE50A5401C0E0EC2424F5822B
:105CE000E43DF583D0E0F0740E7808121C5A023FB0
:105CF0008BE50A54018C828D8322125D00A3A322BE
:105D0000540F8C828D832254038C828D8322A3A313
:105D1000A3A3A3A3A3F08A0A8B0B22C082C083791A
:105D2000008A828B83A3A3A3A3A3A3E09017E560BB
:105D30000EE0701F8A828B83A3A3E070168012E0AE
:105D400060111269C29017EEE06A7003A3E06B6005
:105D500002790180031269CFD083D0820219667460
:105D6000F21214A08A0A8B0B890CECFEEDFF8A82DA
:105D70008B83E0FA125EE3850A82850B83A3A3126C
:105D80005ED7E0F9EA8E828F83A3A3A3A3A3A3A384
:105D9000A3A3125EFC125ED7A3A3E0F9125EA7EAEA
:105DA000125EFCA3A3E0C0E0EE2411F582E43FF50F
:105DB00083D0E0125F03A3A3A3E0C0E0EE2412F5BA
:105DC00082E43FF583D0E0126BE07408124F25A304
:105DD000A3A3E06017E50A2408F8E4350BF9125391
:105DE000ADE8F0A3E9126BE0E02408F08E828F8327
:105DF000A3A3A3A3A3A3A3A3E060188E828F83A36E
:105E0000125EC6EE24151265FA850882850983E0C4
:105E10002408F08E828F83A3A3A3A3A3E060248E23
:105E2000828F83A3858208858309E0F8E50A28F537
:105E300082E4350B125EBBA3A3F08508828509833B
:105E4000E004F0EEFAEFFB122B5EE9F50D70498EDF
:105E5000828F83A3A3A3A3A3A3125EB5A37014E0B0
:105E6000F8E50A28FAE4350BFB125E9D126B1BE580
:105E70000C801A125EC6E8240EF8500109EE241DAB
:105E80001265FA125EEAF9E50CC39924F2C398C0D0
:105E9000E0EE126754D0E0F0A90D024CFCEE241D98
:105EA000F582E43FF58322EE125EAC22240BF582EC
:105EB000E43FF58322E08E828F8322F583E08E8299
:105EC0008F83A3A3A322858208858309E0F8E50ACE
:105ED00028F8E4350BF922E0FA850A82850B83A3C2
:105EE000A3A322126D3C122B58229017E6E0F91260
:105EF0002A3EE9F8850882850983E022F0A3E912A9
:105F00005F0322F0850A82850B83A3A3A3A322C08B
:105F100082C0837A6E7B1879E21230EC7A6E7B183D
:105F2000025D58C082C0839017EE025D55C082C0EA
:105F3000839017F1025D55C082C083794A1230EC1C
:105F4000025D5874F61214A0901876E0FE04F0EE8C
:105F5000F9122B10EA4B70F0EE60EDF90260C87494
:105F6000F21214A0EAFEEBFF8C088D09890A122CAC
:105F70004E740E121CCFE0F9740F121CCFE0F8EA39
:105F80004B7012E8701BA90AAC08AD09EEFAEFFBE2
:105F9000122C6C8065E86017E970068A828B83E4B6
:105FA000F07401687054E99018797024E4801EE957
:105FB0007048EA24021254D0A80A28F8E4340013E6
:105FC000E813F070358A828B83A3A37401F0802AD2
:105FD000E004F0901A0FE0F8901879E0C398401AA6
:105FE000E4F09017F1E06E7003A3E06F700CEEFA2E
:105FF000EFFB7901122798125FFD024CFC7A017BBE
:1060000000901848E0F91221E62274F41214A08AD4
:10601000088B098C0A8D0B9087917808121AA27050
:10602000077A01125196801E9019FC7808121C699B
:10603000EA4B4C4D600D780812197E123D3A121948
:10604000998003125FFD023F9FC082C083901A00B7
:10605000024A47C082C083901A02024A4774F6126D
:1060600014A07E007508DA75091778081219867C65
:106070006E7D007A217B001221AA7402121999E91F
:10608000640A70027E011226F6E9640A7004EED2F8
:10609000E1FE900436126B5F600F12620D1230F752
:1060A000E9640A7004EED2E3FE1228CAE9640A70B9
:1060B00004EED2E4FE122588E9640A7004EED2E50B
:1060C000FEEEF980031219997F0202173674F61258
:1060D00014A012207E7508DA75091778081219863F
:1060E00075086E750900780812198612610A12196E
:1060F000991226FC900438126B5F600612620D1232
:1061000030F71228D012259A80BE7C007D007A21BB
:106110007B001221B674042274F61214A074FF12CC
:106120001A627E007508DA75091778081219867CDC
:106130006E7D007A217B001221AA7402121999E95E
:1061400060030261E4780812198675086E8E09787A
:10615000081219867C007D007A217B001221BC7414
:1061600004121999E9707D9017EEE064FE7003A3A4
:10617000E0F460707E019017FDE064086005E06463
:1061800004705C852182852283EE1262247A057B6D
:1061900018794312260C7A027B18794712260C7A5A
:1061A000F37B17794A1261FF7AFB7B17795012262D
:1061B0000C7AEE7B17795312260C7A037B187954EC
:1061C00012260C7AF07B1779E112260C9017E8E082
:1061D000A2E35004D2F08002C2F0126211800512D4
:1061E000207E7E001226EA90043A126B5F6006124F
:1061F000620D1230F71228DCEEF974010260C5124C
:10620000260C7AF17B17794B12260C22A3126AFC1A
:1062100022A2F0E43385218285228312628379529F
:1062200012260C22126283794212260C2274F61274
:1062300014A0E9FEA2E0501C7508DA750917780869
:1062400012198675086E7509007808121986126190
:106250000A121999EEA2E350031226F0EEA2E250C0
:106260000E90043C126B5F600612620D1230F70252
:1062700060C8122AC27A4B7B18794512260C22126A
:10628000628322F0AA21AB222274F71214A074EDCB
:10629000121A62E9FE901847F0AC21AD221262B5E5
:1062A0007412121CCFEE1262C2AA21AB22126272C9
:1062B00074130250B6901A92E0F97A4B7B18122AA6
:1062C000C822F0901A92E0F97C4B7D18222415F533
:1062D00082E4221272E03509F58322EFFB90184820
