:020000040000FA
:1000000002072A020803FFFFFFFFFF02080BFFFFA2
:10001000FFFFFF020813FFFFFFFFFF02081BFFFFA8
:10002000FFFFFF020823FFFFFFFFFF02082BFFFF78
:10003000FFFFFF020833FFFFFFFFFF02083BFFFF48
:10004000FFFFFF020843FFFFFFFFFF02084BFFFF18
:10005000FFFFFF020853FFFFFFFFFF02085BFFFFE8
:10006000FFFFFF020863FFFFFFFFFF02086BFFFFB8
:10007000FFFFFF020873FFFFFFFFFF02087BFFFF88
:10008000FFFFFF020883FFFFFFFFFF02088B78FFDF
:10009000FFFF040000000100000000000000060057
:1000A00000000008000074F512056A8908740F59F1
:1000B000F50A750B00740B780A1206F6EA2400F8AC
:1000C000EB3480F9EA2400E9350BF985C709E50826
:1000D000C4540FFAE5C754F84AF5C7740B12076108
:1000E000E0FAA3E0FB801C88828983E08C828D8308
:1000F000F088828983A3A882A9838C828D83A3AC94
:1001000082AD83EAFEEBFFEE24FF1AEF34FFFBEE35
:100110004F70D48509C77F040205D074F712056AB1
:10012000ED900109F0ECA3F0A37462F0A37473F0F6
:10013000A3E0541FF07409120761E0F508A3E0F58D
:1001400009E508333354FC90010EF0740678081268
:100150000739E50890010DF090010F7412F0A374B7
:1001600042F075D1FE75D601EA906271F0EBA3F012
:10017000906270E0D2E1F0E0A2E740FB7F0202056E
:10018000D0C082C083E9C333906272F0906270E0A5
:10019000D2E0F0D083D082227808EB54806004D281
:1001A000F08002C2F0EA25E0FAEB33FBE9A2E75067
:1001B0000474014AFAA2F0500874216AFA74106BB0
:1001C000FBE9C333F918E870D12274F112056A8A89
:1001D000088B098C0A8D0B740F120761E0F50CA3D4
:1001E000E0F50D7411120761E0F50EA3E0F50FE9DB
:1001F0006014780E120709780C1207091202437472
:100200000412066B802F90012578081206E3780E01
:10021000120709AC0CAD0D85080C85090DAA0CE57B
:100220000D5407FB740B78081206A1A9081200A64A
:10023000740212066B7F080205D0C2F989F9A2F98F
:1002400050FC2274F112056A8A0C8B0D8C0E8D0FF6
:10025000C293790512023AE5F9A2E040F5D2930083
:1002600000C293790B12023A850C08850D09850EA0
:100270000A850F0B741078081206A1A90812023A19
:10028000850D09A90912023A850C08A90812023A3B
:10029000790012023A740F120761E0FEA3E0FF74C6
:1002A00011120761E0F508A3E0F509801179001249
:1002B000023AE5F98E828F83F0A3AE82AF83A8085D
:1002C000A909E824FFF508E934FFF509E84970DDDC
:1002D000D29302023574B01206BA53BEFBE59DA25A
:1002E000E650FA0078F8790100E824FF18E934FFB5
:1002F000F9E84970F375C600E59E70FC43BE0490B2
:1003000062707408F0C29043FE01C29143FE02C2C3
:100310009443FE10C290438F0175F80075FC0B7575
:10032000FAD843FC2043F10243F4E053F4F1439044
:100330000EC29143FE0E53F5DFD2FED2917401F549
:10034000D57409F5D48029900101E0F8A3E0F9A360
:10035000E8F0A3E9F07508017509007808120709AB
:100360007C017D017A227B0212011B740212066B52
:1003700075080875090078081207097C017D017A63
:10038000887B0079011200A6740212066B900101AD
:10039000E0F8A3E0F9A3E0687003A3E06970090244
:1003A0000800745012066B22E84970030204437E71
:1003B000007F008E0C8E0D8E0E8E0F806D900115BD
:1003C000C082850C08850D09850E0A850F0B9001EA
:1003D0001178081206E3758301D082780812064C62
:1003E0005040750801750900780812070974021257
:1003F000071A8808890978081207097900AA0CAB3E
:100400000DAC0EAD0F12056412066B8518828519AE
:1004100083E0F9EEFAEFFB1201988A088B09AE0827
:10042000AF09900119780C1206E3900105780C12BF
:10043000064C5089900101E06E7003A3E06F7003D9
:10044000020347750800750902750A45750B0078A7
:100450000A120709740D12071A880A890B780A1202
:100460000709790190011D12075512056412066BE8
:10047000750A06750B00780A120709740712071A25
:10048000880A890B780A1207097901741512076125
:10049000E0F50AA3E0F50BAA0AFBE4FCFD120564F3
:1004A00012066B751400751500751600751700801F
:1004B0002B8E0A750B00780A1207097403120722A3
:1004C000AA08AB0912011B740212066B0508E508A5
:1004D0007002050990011578141206E374071207DB
:1004E00061781412064C5003020370750A04750BF0
:1004F00000780A120709740312071A880A890B7810
:100500000A1207097E0185140C85150D85160E85C6
:10051000170F7415120761E0F510A3E0F511E4F56B
:1005200012F513780C79101206D0900121780C1274
:1005300006E3AA0CAB0DAC0EAD0FEEF9120564127A
:10054000066BA808E5095401F9E84960030204B103
:10055000880A85090B7409780A120739A90A120159
:10056000810204B11201CA7404222518C582C0E0B8
:10057000E51934FFC583C0E0E518C3958224F9105E
:10058000AF088583198582188008858319858218AC
:10059000D2AFCEF0A3E520F0A37808E608F0A3DE02
:1005A000FAEFF0A3E58124FBF8E608F0A3E608F0F3
:1005B000A30808E608F0A3E608F0A315811581D08A
:1005C000E0FED0E0F815811581E8C0E0EEC0E02241
:1005D000851983851882E0A3FEE0A3F5207808E062
:1005E000A3F608DFFAE0A3FFE0A3C0E0E0A3C0E0C9
:1005F000E0A3C0E0E0A3C0E010AF088582188583C7
:10060000198008858218858319D2AFD083D08222C1
:10061000E4900101781179018002F0A3D8FCD9FAA5
:100620007A117B0190008E781979018015E493A3EB
:10063000AD82AE838A828B83F0A3AA82AB838D8244
:100640008E83D8E9D9E71202D512076BC008C3E040
:1006500096F50808A3E096420808A3E09642080829
:10066000A3E09645087001D3D0082200C0D0251819
:1006700010AF08F518500C05198008F51850020540
:1006800019D2AFD0D0222518F58210AF08F5184046
:100690000C15198008F51840021519D2AF85198379
:1006A000226016080808C6C313C618C613C618C6A3
:1006B00013C618C613C6D5E0EA22251810AF08F5F0
:1006C00018400C15198008F51840021519D2AF22F0
:1006D000E627F60809E637F60809E637F60809E6D8
:1006E00037F622E026F608A3E036F608A3E036F651
:1006F00008A3E036F622700422600D18C6C333C684
:1007000008C633C6D5E0F4182274028000C0E0F4B5
:1007100004120686D0E0120748222518F8E435199D
:10072000F9222518FCE43519FD2275D00075813FAA
:10073000751801751901020610600C08C6C313C6AE
:1007400018C613C6D5E0F422CAC0E0E6F0A308DA62
:10075000FAD0E0FA22E0FAA3E0FBA3E0FCA3E0FD7C
:10076000222518F582E43519F5832200000080FB6C
:10077000FFFFFFFFFFFFFFFFFFFFFFFFFFFFFFFF89
:10078000FFFFFFFFFFFFFFFFFFFFFFFFFFFFFFFF79
:10079000FFFFFFFFFFFFFFFFFFFFFFFFFFFFFFFF69
:1007A000FFFFFFFFFFFFFFFFFFFFFFFFFFFFFFFF59
:1007B000FFFFFFFFFFFFFFFFFFFFFFFFFFFFFFFF49
:1007C000FFFFFFFFFFFFFFFFFFFFFFFFFFFFFFFF39
:1007D000FFFFFFFFFFFFFFFFFFFFFFFFFFFFFFFF29
:1007E000FFFFFFFFFFFFFFFFFFFFFFFFFFFFFFFF19
:1007F000FFFFFFFFFFFFFFFFFFFFFFFFFFFFFFFF09
:040000050000072AC6
:00000001FF
